{
  "_format": "hh-sol-artifact-1",
  "contractName": "Payroll",
  "sourceName": "contracts/Payroll.sol",
  "abi": [
    {
      "inputs": [],
      "stateMutability": "nonpayable",
      "type": "constructor"
    },
    {
      "anonymous": false,
      "inputs": [
        {
          "indexed": true,
          "internalType": "uint256",
          "name": "streamId",
          "type": "uint256"
        },
        {
          "indexed": false,
          "internalType": "uint256",
          "name": "balance",
          "type": "uint256"
        }
      ],
      "name": "BalanceOf",
      "type": "event"
    },
    {
      "anonymous": false,
      "inputs": [
        {
          "indexed": true,
          "internalType": "uint256",
          "name": "streamId",
          "type": "uint256"
        },
        {
          "indexed": true,
          "internalType": "address",
          "name": "recipient",
          "type": "address"
        },
        {
          "indexed": false,
          "internalType": "uint256",
          "name": "balance",
          "type": "uint256"
        }
      ],
      "name": "CancelStream",
      "type": "event"
    },
    {
      "anonymous": false,
      "inputs": [
        {
          "indexed": true,
          "internalType": "uint256",
          "name": "streamId",
          "type": "uint256"
        },
        {
          "indexed": true,
          "internalType": "address",
          "name": "sender",
          "type": "address"
        },
        {
          "indexed": true,
          "internalType": "address",
          "name": "recipient",
          "type": "address"
        },
        {
          "indexed": false,
          "internalType": "string",
          "name": "localCurrency",
          "type": "string"
        },
        {
          "indexed": false,
          "internalType": "string",
          "name": "settlementCurrency",
          "type": "string"
        },
        {
          "indexed": false,
          "internalType": "uint256",
          "name": "balance",
          "type": "uint256"
        },
        {
          "indexed": false,
          "internalType": "uint256",
          "name": "prevTransacTime",
          "type": "uint256"
        }
      ],
      "name": "CreateStream",
      "type": "event"
    },
    {
      "anonymous": false,
      "inputs": [
        {
          "indexed": true,
          "internalType": "uint256",
          "name": "streamId",
          "type": "uint256"
        },
        {
          "indexed": true,
          "internalType": "address",
          "name": "recipient",
          "type": "address"
        }
      ],
      "name": "WithdrawFromStream",
      "type": "event"
    },
    {
      "inputs": [
        {
          "internalType": "uint256",
          "name": "streamId",
          "type": "uint256"
        }
      ],
      "name": "balanceOf",
      "outputs": [
        {
          "internalType": "uint256",
          "name": "balance",
          "type": "uint256"
        }
      ],
      "stateMutability": "view",
      "type": "function"
    },
    {
      "inputs": [
        {
          "internalType": "uint256",
          "name": "streamId",
          "type": "uint256"
        }
      ],
      "name": "cancelStream",
      "outputs": [],
      "stateMutability": "nonpayable",
      "type": "function"
    },
    {
      "inputs": [
        {
          "internalType": "uint256",
          "name": "",
          "type": "uint256"
        }
      ],
      "name": "comp",
      "outputs": [
        {
          "internalType": "address",
          "name": "recipient",
          "type": "address"
        },
        {
          "internalType": "uint256",
          "name": "empStartTime",
          "type": "uint256"
        },
        {
          "internalType": "string",
          "name": "name",
          "type": "string"
        },
        {
          "internalType": "uint256",
          "name": "annualSalary",
          "type": "uint256"
        },
        {
          "internalType": "string",
          "name": "country",
          "type": "string"
        },
        {
          "internalType": "string",
          "name": "localCurrency",
          "type": "string"
        },
        {
          "internalType": "string",
          "name": "settlementCurrency",
          "type": "string"
        },
        {
          "internalType": "uint256",
          "name": "frequency",
          "type": "uint256"
        }
      ],
      "stateMutability": "view",
      "type": "function"
    },
    {
      "inputs": [],
      "name": "compIdCounter",
      "outputs": [
        {
          "internalType": "uint256",
          "name": "_value",
          "type": "uint256"
        }
      ],
      "stateMutability": "view",
      "type": "function"
    },
    {
      "inputs": [
        {
          "internalType": "address",
          "name": "recipient",
          "type": "address"
        },
        {
          "internalType": "uint256",
          "name": "deposit",
          "type": "uint256"
        },
        {
          "internalType": "string",
          "name": "name",
          "type": "string"
        },
        {
          "internalType": "uint256",
          "name": "annualSalary",
          "type": "uint256"
        },
        {
          "internalType": "string",
          "name": "country",
          "type": "string"
        },
        {
          "internalType": "string",
          "name": "localCurrency",
          "type": "string"
        },
        {
          "internalType": "string",
          "name": "settlementCurrency",
          "type": "string"
        },
        {
          "internalType": "uint256",
          "name": "frequency",
          "type": "uint256"
        }
      ],
      "name": "createCompensation",
      "outputs": [
        {
          "internalType": "uint256",
          "name": "compId",
          "type": "uint256"
        }
      ],
      "stateMutability": "nonpayable",
      "type": "function"
    },
    {
      "inputs": [
        {
          "internalType": "string",
          "name": "_currency",
          "type": "string"
        }
      ],
      "name": "getLatestPrice",
      "outputs": [
        {
          "internalType": "int256",
          "name": "",
          "type": "int256"
        }
      ],
      "stateMutability": "view",
      "type": "function"
    },
    {
      "inputs": [],
      "name": "owner",
      "outputs": [
        {
          "internalType": "address",
          "name": "",
          "type": "address"
        }
      ],
      "stateMutability": "view",
      "type": "function"
    },
    {
      "inputs": [
        {
          "internalType": "string",
          "name": "_currency",
          "type": "string"
        }
      ],
      "name": "setPricebySymbol",
      "outputs": [],
      "stateMutability": "nonpayable",
      "type": "function"
    },
    {
      "inputs": [],
      "name": "streamIdCounter",
      "outputs": [
        {
          "internalType": "uint256",
          "name": "_value",
          "type": "uint256"
        }
      ],
      "stateMutability": "view",
      "type": "function"
    },
    {
      "inputs": [
        {
          "internalType": "uint256",
          "name": "",
          "type": "uint256"
        }
      ],
      "name": "streams",
      "outputs": [
        {
          "internalType": "address",
          "name": "recipient",
          "type": "address"
        },
        {
          "internalType": "address",
          "name": "sender",
          "type": "address"
        },
        {
          "internalType": "string",
          "name": "localCurrency",
          "type": "string"
        },
        {
          "internalType": "string",
          "name": "settlementCurrency",
          "type": "string"
        },
        {
          "internalType": "uint256",
          "name": "prevTransacTime",
          "type": "uint256"
        },
        {
          "internalType": "uint256",
          "name": "rate",
          "type": "uint256"
        },
        {
          "internalType": "uint256",
          "name": "balance",
          "type": "uint256"
        },
        {
          "internalType": "bool",
          "name": "isEntity",
          "type": "bool"
        }
      ],
      "stateMutability": "view",
      "type": "function"
    },
    {
      "inputs": [
        {
          "internalType": "uint256",
          "name": "streamId",
          "type": "uint256"
        }
      ],
      "name": "withdrawFromStream",
      "outputs": [],
      "stateMutability": "nonpayable",
      "type": "function"
    }
  ],
  "bytecode": "0x60806040527321c095d2ada464a294956ea058077f14f66535af600560006101000a81548173ffffffffffffffffffffffffffffffffffffffff021916908373ffffffffffffffffffffffffffffffffffffffff1602179055507378f9e60608bf48a1155b4b2a5e31f32318a1d85f600660006101000a81548173ffffffffffffffffffffffffffffffffffffffff021916908373ffffffffffffffffffffffffffffffffffffffff160217905550737b17a813eec55515fb8f49f2ef51502bc54dd40f600760006101000a81548173ffffffffffffffffffffffffffffffffffffffff021916908373ffffffffffffffffffffffffffffffffffffffff160217905550733ae2f46a2d84e3d5590ee6ee5116b80caf77deca600860006101000a81548173ffffffffffffffffffffffffffffffffffffffff021916908373ffffffffffffffffffffffffffffffffffffffff16021790555073a24de01df22b63d23ebc1882a5e3d4ec0d907bfb600960006101000a81548173ffffffffffffffffffffffffffffffffffffffff021916908373ffffffffffffffffffffffffffffffffffffffff1602179055506301e13380600a55670de0b6b3a7640000600b55610ccb600c5573d92e713d051c37ebb2561803a3b5fbabc4962431600e60006101000a81548173ffffffffffffffffffffffffffffffffffffffff021916908373ffffffffffffffffffffffffffffffffffffffff160217905550735ed8bd53b0c3fa3deabd345430b1a3a6a4e8bd7c600f60006101000a81548173ffffffffffffffffffffffffffffffffffffffff021916908373ffffffffffffffffffffffffffffffffffffffff16021790555073f39fd6e51aad88f6f4ce6ab8827279cfffb92266601060006101000a81548173ffffffffffffffffffffffffffffffffffffffff021916908373ffffffffffffffffffffffffffffffffffffffff1602179055503480156102d257600080fd5b5033600d60006101000a81548173ffffffffffffffffffffffffffffffffffffffff021916908373ffffffffffffffffffffffffffffffffffffffff160217905550600560009054906101000a900473ffffffffffffffffffffffffffffffffffffffff166000806101000a81548173ffffffffffffffffffffffffffffffffffffffff021916908373ffffffffffffffffffffffffffffffffffffffff160217905550600660009054906101000a900473ffffffffffffffffffffffffffffffffffffffff16600160006101000a81548173ffffffffffffffffffffffffffffffffffffffff021916908373ffffffffffffffffffffffffffffffffffffffff160217905550600760009054906101000a900473ffffffffffffffffffffffffffffffffffffffff16600260006101000a81548173ffffffffffffffffffffffffffffffffffffffff021916908373ffffffffffffffffffffffffffffffffffffffff160217905550600860009054906101000a900473ffffffffffffffffffffffffffffffffffffffff16600360006101000a81548173ffffffffffffffffffffffffffffffffffffffff021916908373ffffffffffffffffffffffffffffffffffffffff160217905550600960009054906101000a900473ffffffffffffffffffffffffffffffffffffffff16600460006101000a81548173ffffffffffffffffffffffffffffffffffffffff021916908373ffffffffffffffffffffffffffffffffffffffff16021790555061342f806105116000396000f3fe608060405234801561001057600080fd5b50600436106100a95760003560e01c806376744fc71161007157806376744fc7146101725780638da5cb5b146101a25780639cc7f708146101c0578063d0810d59146101f0578063d0cac50e1461020c578063f66a1b711461022a576100a9565b80632b645c04146100ae5780633a597f48146100cc57806364d60d91146100e85780636db9241b1461011f5780637181b22d1461013b575b600080fd5b6100b661025a565b6040516100c39190612df0565b60405180910390f35b6100e660048036038101906100e1919061282d565b610266565b005b61010260048036038101906100fd919061282d565b6107e5565b604051610116989796959493929190612af3565b60405180910390f35b6101396004803603810190610134919061282d565b61098a565b005b6101556004803603810190610150919061282d565b610eef565b604051610169989796959493929190612ba8565b60405180910390f35b61018c600480360381019061018791906126b1565b611177565b6040516101999190612df0565b60405180910390f35b6101aa6114a2565b6040516101b79190612ad8565b60405180910390f35b6101da60048036038101906101d5919061282d565b6114c8565b6040516101e79190612df0565b60405180910390f35b61020a600480360381019061020591906127ec565b6118c4565b005b610214611bde565b6040516102219190612df0565b60405180910390f35b610244600480360381019061023f91906127ec565b611bea565b6040516102519190612c42565b60405180910390f35b60118060000154905081565b806013600082815260200190815260200160002060070160009054906101000a900460ff166102ca576040517f08c379a00000000000000000000000000000000000000000000000000000000081526004016102c190612cb0565b60405180910390fd5b81600d60009054906101000a900473ffffffffffffffffffffffffffffffffffffffff1673ffffffffffffffffffffffffffffffffffffffff163373ffffffffffffffffffffffffffffffffffffffff16148061038857506013600082815260200190815260200160002060000160009054906101000a900473ffffffffffffffffffffffffffffffffffffffff1673ffffffffffffffffffffffffffffffffffffffff163373ffffffffffffffffffffffffffffffffffffffff16145b6103c7576040517f08c379a00000000000000000000000000000000000000000000000000000000081526004016103be90612dd0565b60405180910390fd5b600060136000858152602001908152602001600020604051806101000160405290816000820160009054906101000a900473ffffffffffffffffffffffffffffffffffffffff1673ffffffffffffffffffffffffffffffffffffffff1673ffffffffffffffffffffffffffffffffffffffff1681526020016001820160009054906101000a900473ffffffffffffffffffffffffffffffffffffffff1673ffffffffffffffffffffffffffffffffffffffff1673ffffffffffffffffffffffffffffffffffffffff1681526020016002820180546104a490613047565b80601f01602080910402602001604051908101604052809291908181526020018280546104d090613047565b801561051d5780601f106104f25761010080835404028352916020019161051d565b820191906000526020600020905b81548152906001019060200180831161050057829003601f168201915b5050505050815260200160038201805461053690613047565b80601f016020809104026020016040519081016040528092919081815260200182805461056290613047565b80156105af5780601f10610584576101008083540402835291602001916105af565b820191906000526020600020905b81548152906001019060200180831161059257829003601f168201915b505050505081526020016004820154815260200160058201548152602001600682015481526020016007820160009054906101000a900460ff161515151581525050905060006105fe856114c8565b905060008111610643576040517f08c379a000000000000000000000000000000000000000000000000000000000815260040161063a90612cf0565b60405180910390fd5b6000600f60009054906101000a900473ffffffffffffffffffffffffffffffffffffffff16905060008173ffffffffffffffffffffffffffffffffffffffff1663a9059cbb601060009054906101000a900473ffffffffffffffffffffffffffffffffffffffff16856040518363ffffffff1660e01b81526004016106c9929190612b7f565b602060405180830381600087803b1580156106e357600080fd5b505af11580156106f7573d6000803e3d6000fd5b505050506040513d601f19601f8201168201806040525081019061071b91906127c3565b90508061075d576040517f08c379a000000000000000000000000000000000000000000000000000000000815260040161075490612d70565b60405180910390fd5b60006013600089815260200190815260200160002060060181905550426013600089815260200190815260200160002060040181905550836000015173ffffffffffffffffffffffffffffffffffffffff16877f061bc02b2182b529640e1f4902ca787023ea0d94e620dd5fdb7af009a349dc9260405160405180910390a350505050505050565b60136020528060005260406000206000915090508060000160009054906101000a900473ffffffffffffffffffffffffffffffffffffffff16908060010160009054906101000a900473ffffffffffffffffffffffffffffffffffffffff169080600201805461085490613047565b80601f016020809104026020016040519081016040528092919081815260200182805461088090613047565b80156108cd5780601f106108a2576101008083540402835291602001916108cd565b820191906000526020600020905b8154815290600101906020018083116108b057829003601f168201915b5050505050908060030180546108e290613047565b80601f016020809104026020016040519081016040528092919081815260200182805461090e90613047565b801561095b5780601f106109305761010080835404028352916020019161095b565b820191906000526020600020905b81548152906001019060200180831161093e57829003601f168201915b5050505050908060040154908060050154908060060154908060070160009054906101000a900460ff16905088565b806013600082815260200190815260200160002060070160009054906101000a900460ff166109ee576040517f08c379a00000000000000000000000000000000000000000000000000000000081526004016109e590612cb0565b60405180910390fd5b81600d60009054906101000a900473ffffffffffffffffffffffffffffffffffffffff1673ffffffffffffffffffffffffffffffffffffffff163373ffffffffffffffffffffffffffffffffffffffff161480610aac57506013600082815260200190815260200160002060000160009054906101000a900473ffffffffffffffffffffffffffffffffffffffff1673ffffffffffffffffffffffffffffffffffffffff163373ffffffffffffffffffffffffffffffffffffffff16145b610aeb576040517f08c379a0000000000000000000000000000000000000000000000000000000008152600401610ae290612dd0565b60405180910390fd5b600060136000858152602001908152602001600020604051806101000160405290816000820160009054906101000a900473ffffffffffffffffffffffffffffffffffffffff1673ffffffffffffffffffffffffffffffffffffffff1673ffffffffffffffffffffffffffffffffffffffff1681526020016001820160009054906101000a900473ffffffffffffffffffffffffffffffffffffffff1673ffffffffffffffffffffffffffffffffffffffff1673ffffffffffffffffffffffffffffffffffffffff168152602001600282018054610bc890613047565b80601f0160208091040260200160405190810160405280929190818152602001828054610bf490613047565b8015610c415780601f10610c1657610100808354040283529160200191610c41565b820191906000526020600020905b815481529060010190602001808311610c2457829003601f168201915b50505050508152602001600382018054610c5a90613047565b80601f0160208091040260200160405190810160405280929190818152602001828054610c8690613047565b8015610cd35780601f10610ca857610100808354040283529160200191610cd3565b820191906000526020600020905b815481529060010190602001808311610cb657829003601f168201915b505050505081526020016004820154815260200160058201548152602001600682015481526020016007820160009054906101000a900460ff16151515158152505090506000610d22856114c8565b905060136000868152602001908152602001600020600080820160006101000a81549073ffffffffffffffffffffffffffffffffffffffff02191690556001820160006101000a81549073ffffffffffffffffffffffffffffffffffffffff0219169055600282016000610d9691906124e8565b600382016000610da691906124e8565b6004820160009055600582016000905560068201600090556007820160006101000a81549060ff021916905550506000811115610e95576000826000015173ffffffffffffffffffffffffffffffffffffffff1682620186a090604051610e0c90612ac3565b600060405180830381858888f193505050503d8060008114610e4a576040519150601f19603f3d011682016040523d82523d6000602084013e610e4f565b606091505b5050905080610e93576040517f08c379a0000000000000000000000000000000000000000000000000000000008152600401610e8a90612d70565b60405180910390fd5b505b816000015173ffffffffffffffffffffffffffffffffffffffff16857f2c1e95b216cd3924a2eeae8031710cc28201574f6549c6598068c752954a167e83604051610ee09190612df0565b60405180910390a35050505050565b60146020528060005260406000206000915090508060000160009054906101000a900473ffffffffffffffffffffffffffffffffffffffff1690806001015490806002018054610f3e90613047565b80601f0160208091040260200160405190810160405280929190818152602001828054610f6a90613047565b8015610fb75780601f10610f8c57610100808354040283529160200191610fb7565b820191906000526020600020905b815481529060010190602001808311610f9a57829003601f168201915b505050505090806003015490806004018054610fd290613047565b80601f0160208091040260200160405190810160405280929190818152602001828054610ffe90613047565b801561104b5780601f106110205761010080835404028352916020019161104b565b820191906000526020600020905b81548152906001019060200180831161102e57829003601f168201915b50505050509080600501805461106090613047565b80601f016020809104026020016040519081016040528092919081815260200182805461108c90613047565b80156110d95780601f106110ae576101008083540402835291602001916110d9565b820191906000526020600020905b8154815290600101906020018083116110bc57829003601f168201915b5050505050908060060180546110ee90613047565b80601f016020809104026020016040519081016040528092919081815260200182805461111a90613047565b80156111675780601f1061113c57610100808354040283529160200191611167565b820191906000526020600020905b81548152906001019060200180831161114a57829003601f168201915b5050505050908060070154905088565b60008073ffffffffffffffffffffffffffffffffffffffff168973ffffffffffffffffffffffffffffffffffffffff1614156111e8576040517f08c379a00000000000000000000000000000000000000000000000000000000081526004016111df90612d10565b60405180910390fd5b3073ffffffffffffffffffffffffffffffffffffffff168973ffffffffffffffffffffffffffffffffffffffff161415611257576040517f08c379a000000000000000000000000000000000000000000000000000000000815260040161124e90612d90565b60405180910390fd5b3373ffffffffffffffffffffffffffffffffffffffff168973ffffffffffffffffffffffffffffffffffffffff1614156112c6576040517f08c379a00000000000000000000000000000000000000000000000000000000081526004016112bd90612d30565b60405180910390fd5b60008811611309576040517f08c379a000000000000000000000000000000000000000000000000000000000815260040161130090612d50565b60405180910390fd5b6113136011611e6a565b61131d6011611e80565b905060004290506000600a54600b54896113379190612f0f565b6113419190612ede565b90506040518061010001604052808c73ffffffffffffffffffffffffffffffffffffffff1681526020018381526020018a8152602001898152602001888152602001878152602001868152602001858152506014600085815260200190815260200160002060008201518160000160006101000a81548173ffffffffffffffffffffffffffffffffffffffff021916908373ffffffffffffffffffffffffffffffffffffffff160217905550602082015181600101556040820151816002019080519060200190611413929190612528565b5060608201518160030155608082015181600401908051906020019061143a929190612528565b5060a0820151816005019080519060200190611457929190612528565b5060c0820151816006019080519060200190611474929190612528565b5060e0820151816007015590505060006114918c83858a8a611e8e565b905050505098975050505050505050565b600d60009054906101000a900473ffffffffffffffffffffffffffffffffffffffff1681565b6000816013600082815260200190815260200160002060070160009054906101000a900460ff1661152e576040517f08c379a000000000000000000000000000000000000000000000000000000000815260040161152590612cb0565b60405180910390fd5b600d60009054906101000a900473ffffffffffffffffffffffffffffffffffffffff1673ffffffffffffffffffffffffffffffffffffffff163373ffffffffffffffffffffffffffffffffffffffff1614806115eb57506013600084815260200190815260200160002060000160009054906101000a900473ffffffffffffffffffffffffffffffffffffffff1673ffffffffffffffffffffffffffffffffffffffff163373ffffffffffffffffffffffffffffffffffffffff16145b61162a576040517f08c379a000000000000000000000000000000000000000000000000000000000815260040161162190612db0565b60405180910390fd5b600060136000858152602001908152602001600020604051806101000160405290816000820160009054906101000a900473ffffffffffffffffffffffffffffffffffffffff1673ffffffffffffffffffffffffffffffffffffffff1673ffffffffffffffffffffffffffffffffffffffff1681526020016001820160009054906101000a900473ffffffffffffffffffffffffffffffffffffffff1673ffffffffffffffffffffffffffffffffffffffff1673ffffffffffffffffffffffffffffffffffffffff16815260200160028201805461170790613047565b80601f016020809104026020016040519081016040528092919081815260200182805461173390613047565b80156117805780601f1061175557610100808354040283529160200191611780565b820191906000526020600020905b81548152906001019060200180831161176357829003601f168201915b5050505050815260200160038201805461179990613047565b80601f01602080910402602001604051908101604052809291908181526020018280546117c590613047565b80156118125780601f106117e757610100808354040283529160200191611812565b820191906000526020600020905b8154815290600101906020018083116117f557829003601f168201915b505050505081526020016004820154815260200160058201548152602001600682015481526020016007820160009054906101000a900460ff1615151515815250509050600061186185612237565b9050600061187c8360a00151836124a490919063ffffffff16565b9050600061188d8460600151611bea565b9050806305f5e100836118a09190612f0f565b6118aa9190612ede565b915081866118b89190612e88565b95505050505050919050565b611903816040518060400160405280600381526020017f41554400000000000000000000000000000000000000000000000000000000008152506124ba565b1561197057600560009054906101000a900473ffffffffffffffffffffffffffffffffffffffff16601560006101000a81548173ffffffffffffffffffffffffffffffffffffffff021916908373ffffffffffffffffffffffffffffffffffffffff160217905550611bdb565b6119af816040518060400160405280600381526020017f45555200000000000000000000000000000000000000000000000000000000008152506124ba565b15611a1c57600660009054906101000a900473ffffffffffffffffffffffffffffffffffffffff16601560006101000a81548173ffffffffffffffffffffffffffffffffffffffff021916908373ffffffffffffffffffffffffffffffffffffffff160217905550611bda565b611a5b816040518060400160405280600381526020017f47425000000000000000000000000000000000000000000000000000000000008152506124ba565b15611ac857600760009054906101000a900473ffffffffffffffffffffffffffffffffffffffff16601560006101000a81548173ffffffffffffffffffffffffffffffffffffffff021916908373ffffffffffffffffffffffffffffffffffffffff160217905550611bd9565b611b07816040518060400160405280600381526020017f4a505900000000000000000000000000000000000000000000000000000000008152506124ba565b15611b7457600860009054906101000a900473ffffffffffffffffffffffffffffffffffffffff16601560006101000a81548173ffffffffffffffffffffffffffffffffffffffff021916908373ffffffffffffffffffffffffffffffffffffffff160217905550611bd8565b600960009054906101000a900473ffffffffffffffffffffffffffffffffffffffff16601560006101000a81548173ffffffffffffffffffffffffffffffffffffffff021916908373ffffffffffffffffffffffffffffffffffffffff1602179055505b5b5b5b50565b60128060000154905081565b600080611c2c836040518060400160405280600381526020017f41554400000000000000000000000000000000000000000000000000000000008152506124ba565b15611c595760008054906101000a900473ffffffffffffffffffffffffffffffffffffffff169050611dcc565b611c98836040518060400160405280600381526020017f45555200000000000000000000000000000000000000000000000000000000008152506124ba565b15611cc757600160009054906101000a900473ffffffffffffffffffffffffffffffffffffffff169050611dcb565b611d06836040518060400160405280600381526020017f47425000000000000000000000000000000000000000000000000000000000008152506124ba565b15611d3557600260009054906101000a900473ffffffffffffffffffffffffffffffffffffffff169050611dca565b611d74836040518060400160405280600381526020017f4a505900000000000000000000000000000000000000000000000000000000008152506124ba565b15611da357600360009054906101000a900473ffffffffffffffffffffffffffffffffffffffff169050611dc9565b600460009054906101000a900473ffffffffffffffffffffffffffffffffffffffff1690505b5b5b5b60008060008060008573ffffffffffffffffffffffffffffffffffffffff1663feaf968c6040518163ffffffff1660e01b815260040160a06040518083038186803b158015611e1a57600080fd5b505afa158015611e2e573d6000803e3d6000fd5b505050506040513d601f19601f82011682018060405250810190611e529190612856565b94509450945094509450839650505050505050919050565b6001816000016000828254019250508190555050565b600081600001549050919050565b60008073ffffffffffffffffffffffffffffffffffffffff168673ffffffffffffffffffffffffffffffffffffffff161415611eff576040517f08c379a0000000000000000000000000000000000000000000000000000000008152600401611ef690612d10565b60405180910390fd5b3073ffffffffffffffffffffffffffffffffffffffff168673ffffffffffffffffffffffffffffffffffffffff161415611f6e576040517f08c379a0000000000000000000000000000000000000000000000000000000008152600401611f6590612d90565b60405180910390fd5b3373ffffffffffffffffffffffffffffffffffffffff168673ffffffffffffffffffffffffffffffffffffffff161415611fdd576040517f08c379a0000000000000000000000000000000000000000000000000000000008152600401611fd490612d30565b60405180910390fd5b42841015612020576040517f08c379a000000000000000000000000000000000000000000000000000000000815260040161201790612cd0565b60405180910390fd5b61202a6012611e6a565b60006120366012611e80565b90506040518061010001604052808873ffffffffffffffffffffffffffffffffffffffff1681526020013373ffffffffffffffffffffffffffffffffffffffff16815260200185815260200184815260200142815260200187815260200160008152602001600115158152506013600083815260200190815260200160002060008201518160000160006101000a81548173ffffffffffffffffffffffffffffffffffffffff021916908373ffffffffffffffffffffffffffffffffffffffff16021790555060208201518160010160006101000a81548173ffffffffffffffffffffffffffffffffffffffff021916908373ffffffffffffffffffffffffffffffffffffffff160217905550604082015181600201908051906020019061215f929190612528565b50606082015181600301908051906020019061217c929190612528565b506080820151816004015560a0820151816005015560c0820151816006015560e08201518160070160006101000a81548160ff0219169083151502179055509050508673ffffffffffffffffffffffffffffffffffffffff163373ffffffffffffffffffffffffffffffffffffffff16827f97c453fdbaffdf8fdfa4ed4f05741c81a677a4f53ba880cb1b0517fe542d559287878b8b6040516122229493929190612c5d565b60405180910390a48091505095945050505050565b60008060136000848152602001908152602001600020604051806101000160405290816000820160009054906101000a900473ffffffffffffffffffffffffffffffffffffffff1673ffffffffffffffffffffffffffffffffffffffff1673ffffffffffffffffffffffffffffffffffffffff1681526020016001820160009054906101000a900473ffffffffffffffffffffffffffffffffffffffff1673ffffffffffffffffffffffffffffffffffffffff1673ffffffffffffffffffffffffffffffffffffffff16815260200160028201805461231590613047565b80601f016020809104026020016040519081016040528092919081815260200182805461234190613047565b801561238e5780601f106123635761010080835404028352916020019161238e565b820191906000526020600020905b81548152906001019060200180831161237157829003601f168201915b505050505081526020016003820180546123a790613047565b80601f01602080910402602001604051908101604052809291908181526020018280546123d390613047565b80156124205780601f106123f557610100808354040283529160200191612420565b820191906000526020600020905b81548152906001019060200180831161240357829003601f168201915b505050505081526020016004820154815260200160058201548152602001600682015481526020016007820160009054906101000a900460ff16151515158152505090508060800151421161247957600091505061249f565b806080015142111561249d578060800151426124959190612f69565b91505061249f565b505b919050565b600081836124b29190612f0f565b905092915050565b600081518351146124ce57600090506124e2565b818051906020012083805190602001201490505b92915050565b5080546124f490613047565b6000825580601f106125065750612525565b601f01602090049060005260206000209081019061252491906125ae565b5b50565b82805461253490613047565b90600052602060002090601f016020900481019282612556576000855561259d565b82601f1061256f57805160ff191683800117855561259d565b8280016001018555821561259d579182015b8281111561259c578251825591602001919060010190612581565b5b5090506125aa91906125ae565b5090565b5b808211156125c75760008160009055506001016125af565b5090565b60006125de6125d984612e30565b612e0b565b9050828152602081018484840111156125f657600080fd5b612601848285613005565b509392505050565b60008135905061261881613386565b92915050565b60008151905061262d8161339d565b92915050565b600081519050612642816133b4565b92915050565b600082601f83011261265957600080fd5b81356126698482602086016125cb565b91505092915050565b600081359050612681816133cb565b92915050565b600081519050612696816133cb565b92915050565b6000815190506126ab816133e2565b92915050565b600080600080600080600080610100898b0312156126ce57600080fd5b60006126dc8b828c01612609565b98505060206126ed8b828c01612672565b975050604089013567ffffffffffffffff81111561270a57600080fd5b6127168b828c01612648565b96505060606127278b828c01612672565b955050608089013567ffffffffffffffff81111561274457600080fd5b6127508b828c01612648565b94505060a089013567ffffffffffffffff81111561276d57600080fd5b6127798b828c01612648565b93505060c089013567ffffffffffffffff81111561279657600080fd5b6127a28b828c01612648565b92505060e06127b38b828c01612672565b9150509295985092959890939650565b6000602082840312156127d557600080fd5b60006127e38482850161261e565b91505092915050565b6000602082840312156127fe57600080fd5b600082013567ffffffffffffffff81111561281857600080fd5b61282484828501612648565b91505092915050565b60006020828403121561283f57600080fd5b600061284d84828501612672565b91505092915050565b600080600080600060a0868803121561286e57600080fd5b600061287c8882890161269c565b955050602061288d88828901612633565b945050604061289e88828901612687565b93505060606128af88828901612687565b92505060806128c08882890161269c565b9150509295509295909350565b6128d681612f9d565b82525050565b6128e581612faf565b82525050565b6128f481612fbb565b82525050565b600061290582612e61565b61290f8185612e77565b935061291f818560208601613014565b61292881613166565b840191505092915050565b6000612940601583612e77565b915061294b82613177565b602082019050919050565b6000612963602183612e77565b915061296e826131a0565b604082019050919050565b6000612986601683612e77565b9150612991826131ef565b602082019050919050565b60006129a9601a83612e77565b91506129b482613218565b602082019050919050565b60006129cc601483612e77565b91506129d782613241565b602082019050919050565b60006129ef602583612e77565b91506129fa8261326a565b604082019050919050565b6000612a12601283612e77565b9150612a1d826132b9565b602082019050919050565b6000612a35600083612e6c565b9150612a40826132e2565b600082019050919050565b6000612a58601d83612e77565b9150612a63826132e5565b602082019050919050565b6000612a7b601183612e77565b9150612a868261330e565b602082019050919050565b6000612a9e602983612e77565b9150612aa982613337565b604082019050919050565b612abd81612fe5565b82525050565b6000612ace82612a28565b9150819050919050565b6000602082019050612aed60008301846128cd565b92915050565b600061010082019050612b09600083018b6128cd565b612b16602083018a6128cd565b8181036040830152612b2881896128fa565b90508181036060830152612b3c81886128fa565b9050612b4b6080830187612ab4565b612b5860a0830186612ab4565b612b6560c0830185612ab4565b612b7260e08301846128dc565b9998505050505050505050565b6000604082019050612b9460008301856128cd565b612ba16020830184612ab4565b9392505050565b600061010082019050612bbe600083018b6128cd565b612bcb602083018a612ab4565b8181036040830152612bdd81896128fa565b9050612bec6060830188612ab4565b8181036080830152612bfe81876128fa565b905081810360a0830152612c1281866128fa565b905081810360c0830152612c2681856128fa565b9050612c3560e0830184612ab4565b9998505050505050505050565b6000602082019050612c5760008301846128eb565b92915050565b60006080820190508181036000830152612c7781876128fa565b90508181036020830152612c8b81866128fa565b9050612c9a6040830185612ab4565b612ca76060830184612ab4565b95945050505050565b60006020820190508181036000830152612cc981612933565b9050919050565b60006020820190508181036000830152612ce981612956565b9050919050565b60006020820190508181036000830152612d0981612979565b9050919050565b60006020820190508181036000830152612d298161299c565b9050919050565b60006020820190508181036000830152612d49816129bf565b9050919050565b60006020820190508181036000830152612d69816129e2565b9050919050565b60006020820190508181036000830152612d8981612a05565b9050919050565b60006020820190508181036000830152612da981612a4b565b9050919050565b60006020820190508181036000830152612dc981612a6e565b9050919050565b60006020820190508181036000830152612de981612a91565b9050919050565b6000602082019050612e056000830184612ab4565b92915050565b6000612e15612e26565b9050612e218282613079565b919050565b6000604051905090565b600067ffffffffffffffff821115612e4b57612e4a613137565b5b612e5482613166565b9050602081019050919050565b600081519050919050565b600081905092915050565b600082825260208201905092915050565b6000612e9382612fe5565b9150612e9e83612fe5565b9250827fffffffffffffffffffffffffffffffffffffffffffffffffffffffffffffffff03821115612ed357612ed26130aa565b5b828201905092915050565b6000612ee982612fe5565b9150612ef483612fe5565b925082612f0457612f036130d9565b5b828204905092915050565b6000612f1a82612fe5565b9150612f2583612fe5565b9250817fffffffffffffffffffffffffffffffffffffffffffffffffffffffffffffffff0483118215151615612f5e57612f5d6130aa565b5b828202905092915050565b6000612f7482612fe5565b9150612f7f83612fe5565b925082821015612f9257612f916130aa565b5b828203905092915050565b6000612fa882612fc5565b9050919050565b60008115159050919050565b6000819050919050565b600073ffffffffffffffffffffffffffffffffffffffff82169050919050565b6000819050919050565b600069ffffffffffffffffffff82169050919050565b82818337600083830152505050565b60005b83811015613032578082015181840152602081019050613017565b83811115613041576000848401525b50505050565b6000600282049050600182168061305f57607f821691505b6020821081141561307357613072613108565b5b50919050565b61308282613166565b810181811067ffffffffffffffff821117156130a1576130a0613137565b5b80604052505050565b7f4e487b7100000000000000000000000000000000000000000000000000000000600052601160045260246000fd5b7f4e487b7100000000000000000000000000000000000000000000000000000000600052601260045260246000fd5b7f4e487b7100000000000000000000000000000000000000000000000000000000600052602260045260246000fd5b7f4e487b7100000000000000000000000000000000000000000000000000000000600052604160045260246000fd5b6000601f19601f8301169050919050565b7f73747265616d20646f6573206e6f742065786973740000000000000000000000600082015250565b7f53746172742074696d65206265666f726520626c6f636b2074696d657374616d60008201527f7000000000000000000000000000000000000000000000000000000000000000602082015250565b7f417661696c61626c652062616c616e6365206973203000000000000000000000600082015250565b7f53747265616d20746f20746865207a65726f2061646472657373000000000000600082015250565b7f53747265616d20746f207468652063616c6c6572000000000000000000000000600082015250565b7f4465706f736974206973206c6573732074686174206f7220657175616c20746f60008201527f207a65726f000000000000000000000000000000000000000000000000000000602082015250565b7f5472616e73616374696f6e206661696c65640000000000000000000000000000600082015250565b50565b7f53747265616d20746f2074686520636f6e747261637420697473656c66000000600082015250565b7f4e6f7420616e2076616c69642075736572000000000000000000000000000000600082015250565b7f63616c6c6572206973206e6f742074686520726563697069656e74206f66207460008201527f68652073747265616d0000000000000000000000000000000000000000000000602082015250565b61338f81612f9d565b811461339a57600080fd5b50565b6133a681612faf565b81146133b157600080fd5b50565b6133bd81612fbb565b81146133c857600080fd5b50565b6133d481612fe5565b81146133df57600080fd5b50565b6133eb81612fef565b81146133f657600080fd5b5056fea26469706673582212208d13a1ae8d7f53f7e2b0fbf205dfc4cfc97f3a062b7c583418b5879a902ba74864736f6c63430008030033",
  "linkReferences": {},
  "deployedLinkReferences": {}
}