{
  "_format": "hh-sol-artifact-1",
  "contractName": "Payroll",
  "sourceName": "contracts/Payroll.sol",
  "abi": [
    {
      "inputs": [],
      "stateMutability": "nonpayable",
      "type": "constructor"
    },
    {
      "anonymous": false,
      "inputs": [
        {
          "indexed": true,
          "internalType": "uint256",
          "name": "streamId",
          "type": "uint256"
        },
        {
          "indexed": true,
          "internalType": "address",
          "name": "recipient",
          "type": "address"
        },
        {
          "indexed": false,
          "internalType": "uint256",
          "name": "balance",
          "type": "uint256"
        }
      ],
      "name": "CancelStream",
      "type": "event"
    },
    {
      "anonymous": false,
      "inputs": [
        {
          "indexed": true,
          "internalType": "uint256",
          "name": "streamId",
          "type": "uint256"
        },
        {
          "indexed": true,
          "internalType": "address",
          "name": "sender",
          "type": "address"
        },
        {
          "indexed": true,
          "internalType": "address",
          "name": "recipient",
          "type": "address"
        },
        {
          "indexed": false,
          "internalType": "string",
          "name": "localCurrency",
          "type": "string"
        },
        {
          "indexed": false,
          "internalType": "string",
          "name": "settlementCurrency",
          "type": "string"
        },
        {
          "indexed": false,
          "internalType": "uint256",
          "name": "balance",
          "type": "uint256"
        },
        {
          "indexed": false,
          "internalType": "uint256",
          "name": "prevTransacTime",
          "type": "uint256"
        }
      ],
      "name": "CreateStream",
      "type": "event"
    },
    {
      "anonymous": false,
      "inputs": [
        {
          "indexed": true,
          "internalType": "uint256",
          "name": "streamId",
          "type": "uint256"
        },
        {
          "indexed": true,
          "internalType": "address",
          "name": "recipient",
          "type": "address"
        }
      ],
      "name": "WithdrawFromStream",
      "type": "event"
    },
    {
      "inputs": [
        {
          "internalType": "uint256",
          "name": "streamId",
          "type": "uint256"
        }
      ],
      "name": "balanceOf",
      "outputs": [
        {
          "internalType": "uint256",
          "name": "balance",
          "type": "uint256"
        }
      ],
      "stateMutability": "nonpayable",
      "type": "function"
    },
    {
      "inputs": [
        {
          "internalType": "uint256",
          "name": "streamId",
          "type": "uint256"
        }
      ],
      "name": "cancelStream",
      "outputs": [],
      "stateMutability": "nonpayable",
      "type": "function"
    },
    {
      "inputs": [
        {
          "internalType": "uint256",
          "name": "",
          "type": "uint256"
        }
      ],
      "name": "comp",
      "outputs": [
        {
          "internalType": "address",
          "name": "recipient",
          "type": "address"
        },
        {
          "internalType": "uint256",
          "name": "empStartTime",
          "type": "uint256"
        },
        {
          "internalType": "string",
          "name": "name",
          "type": "string"
        },
        {
          "internalType": "uint256",
          "name": "annualSalary",
          "type": "uint256"
        },
        {
          "internalType": "string",
          "name": "country",
          "type": "string"
        },
        {
          "internalType": "string",
          "name": "localCurrency",
          "type": "string"
        },
        {
          "internalType": "string",
          "name": "settlementCurrency",
          "type": "string"
        },
        {
          "internalType": "uint256",
          "name": "frequency",
          "type": "uint256"
        }
      ],
      "stateMutability": "view",
      "type": "function"
    },
    {
      "inputs": [],
      "name": "compIdCounter",
      "outputs": [
        {
          "internalType": "uint256",
          "name": "_value",
          "type": "uint256"
        }
      ],
      "stateMutability": "view",
      "type": "function"
    },
    {
      "inputs": [
        {
          "internalType": "address",
          "name": "recipient",
          "type": "address"
        },
        {
          "internalType": "string",
          "name": "name",
          "type": "string"
        },
        {
          "internalType": "uint256",
          "name": "annualSalary",
          "type": "uint256"
        },
        {
          "internalType": "string",
          "name": "country",
          "type": "string"
        },
        {
          "internalType": "string",
          "name": "localCurrency",
          "type": "string"
        },
        {
          "internalType": "string",
          "name": "settlementCurrency",
          "type": "string"
        },
        {
          "internalType": "uint256",
          "name": "frequency",
          "type": "uint256"
        }
      ],
      "name": "createCompensation",
      "outputs": [
        {
          "internalType": "uint256",
          "name": "compId",
          "type": "uint256"
        }
      ],
      "stateMutability": "nonpayable",
      "type": "function"
    },
    {
      "inputs": [],
      "name": "getLatestPrice",
      "outputs": [
        {
          "internalType": "int256",
          "name": "",
          "type": "int256"
        }
      ],
      "stateMutability": "view",
      "type": "function"
    },
    {
      "inputs": [],
      "name": "owner",
      "outputs": [
        {
          "internalType": "address",
          "name": "",
          "type": "address"
        }
      ],
      "stateMutability": "view",
      "type": "function"
    },
    {
      "inputs": [
        {
          "internalType": "string",
          "name": "_currency",
          "type": "string"
        }
      ],
      "name": "setPricebySymbol",
      "outputs": [],
      "stateMutability": "nonpayable",
      "type": "function"
    },
    {
      "inputs": [],
      "name": "streamIdCounter",
      "outputs": [
        {
          "internalType": "uint256",
          "name": "_value",
          "type": "uint256"
        }
      ],
      "stateMutability": "view",
      "type": "function"
    },
    {
      "inputs": [
        {
          "internalType": "uint256",
          "name": "",
          "type": "uint256"
        }
      ],
      "name": "streams",
      "outputs": [
        {
          "internalType": "address",
          "name": "recipient",
          "type": "address"
        },
        {
          "internalType": "address",
          "name": "sender",
          "type": "address"
        },
        {
          "internalType": "string",
          "name": "localCurrency",
          "type": "string"
        },
        {
          "internalType": "string",
          "name": "settlementCurrency",
          "type": "string"
        },
        {
          "internalType": "uint256",
          "name": "prevTransacTime",
          "type": "uint256"
        },
        {
          "internalType": "uint256",
          "name": "rate",
          "type": "uint256"
        },
        {
          "internalType": "uint256",
          "name": "balance",
          "type": "uint256"
        },
        {
          "internalType": "bool",
          "name": "isEntity",
          "type": "bool"
        }
      ],
      "stateMutability": "view",
      "type": "function"
    },
    {
      "inputs": [
        {
          "internalType": "uint256",
          "name": "streamId",
          "type": "uint256"
        }
      ],
      "name": "withdrawFromStream",
      "outputs": [],
      "stateMutability": "nonpayable",
      "type": "function"
    }
  ],
  "bytecode": "0x60806040526301e13380600155610ccb600255737b17a813eec55515fb8f49f2ef51502bc54dd40f600860006101000a81548173ffffffffffffffffffffffffffffffffffffffff021916908373ffffffffffffffffffffffffffffffffffffffff1602179055507321c095d2ada464a294956ea058077f14f66535af600960006101000a81548173ffffffffffffffffffffffffffffffffffffffff021916908373ffffffffffffffffffffffffffffffffffffffff1602179055507378f9e60608bf48a1155b4b2a5e31f32318a1d85f600a60006101000a81548173ffffffffffffffffffffffffffffffffffffffff021916908373ffffffffffffffffffffffffffffffffffffffff160217905550733ae2f46a2d84e3d5590ee6ee5116b80caf77deca600b60006101000a81548173ffffffffffffffffffffffffffffffffffffffff021916908373ffffffffffffffffffffffffffffffffffffffff16021790555073a24de01df22b63d23ebc1882a5e3d4ec0d907bfb600c60006101000a81548173ffffffffffffffffffffffffffffffffffffffff021916908373ffffffffffffffffffffffffffffffffffffffff1602179055503480156101c757600080fd5b5033600360006101000a81548173ffffffffffffffffffffffffffffffffffffffff021916908373ffffffffffffffffffffffffffffffffffffffff16021790555061311d806102186000396000f3fe608060405234801561001057600080fd5b50600436106100a95760003560e01c80638da5cb5b116100715780638da5cb5b146101725780638e15f473146101905780639855226b146101ae5780639cc7f708146101de578063d0810d591461020e578063d0cac50e1461022a576100a9565b80632b645c04146100ae5780633a597f48146100cc57806364d60d91146100e85780636db9241b1461011f5780637181b22d1461013b575b600080fd5b6100b6610248565b6040516100c39190612b13565b60405180910390f35b6100e660048036038101906100e191906125bc565b610254565b005b61010260048036038101906100fd91906125bc565b610723565b60405161011698979695949392919061285f565b60405180910390f35b610139600480360381019061013491906125bc565b6108c8565b005b610155600480360381019061015091906125bc565b610dd5565b6040516101699897969594939291906128eb565b60405180910390f35b61017a61105d565b6040516101879190612844565b60405180910390f35b610198611083565b6040516101a59190612985565b60405180910390f35b6101c860048036038101906101c3919061247d565b61113f565b6040516101d59190612b13565b60405180910390f35b6101f860048036038101906101f391906125bc565b611419565b6040516102059190612b13565b60405180910390f35b6102286004803603810190610223919061257b565b6118b7565b005b610232611c33565b60405161023f9190612b13565b60405180910390f35b60048060000154905081565b806006600082815260200190815260200160002060070160009054906101000a900460ff166102b8576040517f08c379a00000000000000000000000000000000000000000000000000000000081526004016102af906129f3565b60405180910390fd5b816006600082815260200190815260200160002060000160009054906101000a900473ffffffffffffffffffffffffffffffffffffffff1673ffffffffffffffffffffffffffffffffffffffff163373ffffffffffffffffffffffffffffffffffffffff161461035d576040517f08c379a000000000000000000000000000000000000000000000000000000000815260040161035490612af3565b60405180910390fd5b600060066000858152602001908152602001600020604051806101000160405290816000820160009054906101000a900473ffffffffffffffffffffffffffffffffffffffff1673ffffffffffffffffffffffffffffffffffffffff1673ffffffffffffffffffffffffffffffffffffffff1681526020016001820160009054906101000a900473ffffffffffffffffffffffffffffffffffffffff1673ffffffffffffffffffffffffffffffffffffffff1673ffffffffffffffffffffffffffffffffffffffff16815260200160028201805461043a90612d6a565b80601f016020809104026020016040519081016040528092919081815260200182805461046690612d6a565b80156104b35780601f10610488576101008083540402835291602001916104b3565b820191906000526020600020905b81548152906001019060200180831161049657829003601f168201915b505050505081526020016003820180546104cc90612d6a565b80601f01602080910402602001604051908101604052809291908181526020018280546104f890612d6a565b80156105455780601f1061051a57610100808354040283529160200191610545565b820191906000526020600020905b81548152906001019060200180831161052857829003601f168201915b505050505081526020016004820154815260200160058201548152602001600682015481526020016007820160009054906101000a900460ff1615151515815250509050600061059485611419565b9050600081116105d9576040517f08c379a00000000000000000000000000000000000000000000000000000000081526004016105d090612a33565b60405180910390fd5b6000826000015173ffffffffffffffffffffffffffffffffffffffff16600254836106049190612c01565b620186a0906040516106159061282f565b600060405180830381858888f193505050503d8060008114610653576040519150601f19603f3d011682016040523d82523d6000602084013e610658565b606091505b505090508061069c576040517f08c379a000000000000000000000000000000000000000000000000000000000815260040161069390612a93565b60405180910390fd5b60006006600088815260200190815260200160002060060181905550426006600088815260200190815260200160002060040181905550826000015173ffffffffffffffffffffffffffffffffffffffff16867f061bc02b2182b529640e1f4902ca787023ea0d94e620dd5fdb7af009a349dc9260405160405180910390a3505050505050565b60066020528060005260406000206000915090508060000160009054906101000a900473ffffffffffffffffffffffffffffffffffffffff16908060010160009054906101000a900473ffffffffffffffffffffffffffffffffffffffff169080600201805461079290612d6a565b80601f01602080910402602001604051908101604052809291908181526020018280546107be90612d6a565b801561080b5780601f106107e05761010080835404028352916020019161080b565b820191906000526020600020905b8154815290600101906020018083116107ee57829003601f168201915b50505050509080600301805461082090612d6a565b80601f016020809104026020016040519081016040528092919081815260200182805461084c90612d6a565b80156108995780601f1061086e57610100808354040283529160200191610899565b820191906000526020600020905b81548152906001019060200180831161087c57829003601f168201915b5050505050908060040154908060050154908060060154908060070160009054906101000a900460ff16905088565b806006600082815260200190815260200160002060070160009054906101000a900460ff1661092c576040517f08c379a0000000000000000000000000000000000000000000000000000000008152600401610923906129f3565b60405180910390fd5b816006600082815260200190815260200160002060000160009054906101000a900473ffffffffffffffffffffffffffffffffffffffff1673ffffffffffffffffffffffffffffffffffffffff163373ffffffffffffffffffffffffffffffffffffffff16146109d1576040517f08c379a00000000000000000000000000000000000000000000000000000000081526004016109c890612af3565b60405180910390fd5b600060066000858152602001908152602001600020604051806101000160405290816000820160009054906101000a900473ffffffffffffffffffffffffffffffffffffffff1673ffffffffffffffffffffffffffffffffffffffff1673ffffffffffffffffffffffffffffffffffffffff1681526020016001820160009054906101000a900473ffffffffffffffffffffffffffffffffffffffff1673ffffffffffffffffffffffffffffffffffffffff1673ffffffffffffffffffffffffffffffffffffffff168152602001600282018054610aae90612d6a565b80601f0160208091040260200160405190810160405280929190818152602001828054610ada90612d6a565b8015610b275780601f10610afc57610100808354040283529160200191610b27565b820191906000526020600020905b815481529060010190602001808311610b0a57829003601f168201915b50505050508152602001600382018054610b4090612d6a565b80601f0160208091040260200160405190810160405280929190818152602001828054610b6c90612d6a565b8015610bb95780601f10610b8e57610100808354040283529160200191610bb9565b820191906000526020600020905b815481529060010190602001808311610b9c57829003601f168201915b505050505081526020016004820154815260200160058201548152602001600682015481526020016007820160009054906101000a900460ff16151515158152505090506000610c0885611419565b905060066000868152602001908152602001600020600080820160006101000a81549073ffffffffffffffffffffffffffffffffffffffff02191690556001820160006101000a81549073ffffffffffffffffffffffffffffffffffffffff0219169055600282016000610c7c91906122c9565b600382016000610c8c91906122c9565b6004820160009055600582016000905560068201600090556007820160006101000a81549060ff021916905550506000811115610d7b576000826000015173ffffffffffffffffffffffffffffffffffffffff1682620186a090604051610cf29061282f565b600060405180830381858888f193505050503d8060008114610d30576040519150601f19603f3d011682016040523d82523d6000602084013e610d35565b606091505b5050905080610d79576040517f08c379a0000000000000000000000000000000000000000000000000000000008152600401610d7090612a93565b60405180910390fd5b505b816000015173ffffffffffffffffffffffffffffffffffffffff16857f2c1e95b216cd3924a2eeae8031710cc28201574f6549c6598068c752954a167e83604051610dc69190612b13565b60405180910390a35050505050565b60076020528060005260406000206000915090508060000160009054906101000a900473ffffffffffffffffffffffffffffffffffffffff1690806001015490806002018054610e2490612d6a565b80601f0160208091040260200160405190810160405280929190818152602001828054610e5090612d6a565b8015610e9d5780601f10610e7257610100808354040283529160200191610e9d565b820191906000526020600020905b815481529060010190602001808311610e8057829003601f168201915b505050505090806003015490806004018054610eb890612d6a565b80601f0160208091040260200160405190810160405280929190818152602001828054610ee490612d6a565b8015610f315780601f10610f0657610100808354040283529160200191610f31565b820191906000526020600020905b815481529060010190602001808311610f1457829003601f168201915b505050505090806005018054610f4690612d6a565b80601f0160208091040260200160405190810160405280929190818152602001828054610f7290612d6a565b8015610fbf5780601f10610f9457610100808354040283529160200191610fbf565b820191906000526020600020905b815481529060010190602001808311610fa257829003601f168201915b505050505090806006018054610fd490612d6a565b80601f016020809104026020016040519081016040528092919081815260200182805461100090612d6a565b801561104d5780601f106110225761010080835404028352916020019161104d565b820191906000526020600020905b81548152906001019060200180831161103057829003601f168201915b5050505050908060070154905088565b600360009054906101000a900473ffffffffffffffffffffffffffffffffffffffff1681565b60008060008060008060008054906101000a900473ffffffffffffffffffffffffffffffffffffffff1673ffffffffffffffffffffffffffffffffffffffff1663feaf968c6040518163ffffffff1660e01b815260040160a06040518083038186803b1580156110f257600080fd5b505afa158015611106573d6000803e3d6000fd5b505050506040513d601f19601f8201168201806040525081019061112a91906125e5565b94509450945094509450839550505050505090565b60008073ffffffffffffffffffffffffffffffffffffffff168873ffffffffffffffffffffffffffffffffffffffff1614156111b0576040517f08c379a00000000000000000000000000000000000000000000000000000000081526004016111a790612a53565b60405180910390fd5b3073ffffffffffffffffffffffffffffffffffffffff168873ffffffffffffffffffffffffffffffffffffffff16141561121f576040517f08c379a000000000000000000000000000000000000000000000000000000000815260040161121690612ab3565b60405180910390fd5b3373ffffffffffffffffffffffffffffffffffffffff168873ffffffffffffffffffffffffffffffffffffffff16141561128e576040517f08c379a000000000000000000000000000000000000000000000000000000000815260040161128590612a73565b60405180910390fd5b6112986004611c3f565b6112a26004611c55565b905060004290506000600154886112b99190612c01565b90506040518061010001604052808b73ffffffffffffffffffffffffffffffffffffffff1681526020018381526020018a8152602001898152602001888152602001878152602001868152602001858152506007600085815260200190815260200160002060008201518160000160006101000a81548173ffffffffffffffffffffffffffffffffffffffff021916908373ffffffffffffffffffffffffffffffffffffffff16021790555060208201518160010155604082015181600201908051906020019061138b929190612309565b506060820151816003015560808201518160040190805190602001906113b2929190612309565b5060a08201518160050190805190602001906113cf929190612309565b5060c08201518160060190805190602001906113ec929190612309565b5060e0820151816007015590505060006114098b83858a8a611c63565b9050505050979650505050505050565b6000816006600082815260200190815260200160002060070160009054906101000a900460ff1661147f576040517f08c379a0000000000000000000000000000000000000000000000000000000008152600401611476906129f3565b60405180910390fd5b600360009054906101000a900473ffffffffffffffffffffffffffffffffffffffff1673ffffffffffffffffffffffffffffffffffffffff163373ffffffffffffffffffffffffffffffffffffffff16148061153c57506006600084815260200190815260200160002060000160009054906101000a900473ffffffffffffffffffffffffffffffffffffffff1673ffffffffffffffffffffffffffffffffffffffff163373ffffffffffffffffffffffffffffffffffffffff16145b61157b576040517f08c379a000000000000000000000000000000000000000000000000000000000815260040161157290612ad3565b60405180910390fd5b600060066000858152602001908152602001600020604051806101000160405290816000820160009054906101000a900473ffffffffffffffffffffffffffffffffffffffff1673ffffffffffffffffffffffffffffffffffffffff1673ffffffffffffffffffffffffffffffffffffffff1681526020016001820160009054906101000a900473ffffffffffffffffffffffffffffffffffffffff1673ffffffffffffffffffffffffffffffffffffffff1673ffffffffffffffffffffffffffffffffffffffff16815260200160028201805461165890612d6a565b80601f016020809104026020016040519081016040528092919081815260200182805461168490612d6a565b80156116d15780601f106116a6576101008083540402835291602001916116d1565b820191906000526020600020905b8154815290600101906020018083116116b457829003601f168201915b505050505081526020016003820180546116ea90612d6a565b80601f016020809104026020016040519081016040528092919081815260200182805461171690612d6a565b80156117635780601f1061173857610100808354040283529160200191611763565b820191906000526020600020905b81548152906001019060200180831161174657829003601f168201915b505050505081526020016004820154815260200160058201548152602001600682015481526020016007820160009054906101000a900460ff161515151581525050905060006117b28561200c565b905060006117cd8360a001518361228590919063ffffffff16565b90506118766006600088815260200190815260200160002060030180546117f390612d6a565b80601f016020809104026020016040519081016040528092919081815260200182805461181f90612d6a565b801561186c5780601f106118415761010080835404028352916020019161186c565b820191906000526020600020905b81548152906001019060200180831161184f57829003601f168201915b50505050506118b7565b6000611880611083565b9050806305f5e100836118939190612c32565b61189d9190612c01565b915081866118ab9190612bab565b95505050505050919050565b6118f6816040518060400160405280600381526020017f415544000000000000000000000000000000000000000000000000000000000081525061229b565b1561196357600960009054906101000a900473ffffffffffffffffffffffffffffffffffffffff16600d60006101000a81548173ffffffffffffffffffffffffffffffffffffffff021916908373ffffffffffffffffffffffffffffffffffffffff160217905550611bce565b6119a2816040518060400160405280600381526020017f455552000000000000000000000000000000000000000000000000000000000081525061229b565b15611a0f57600a60009054906101000a900473ffffffffffffffffffffffffffffffffffffffff16600d60006101000a81548173ffffffffffffffffffffffffffffffffffffffff021916908373ffffffffffffffffffffffffffffffffffffffff160217905550611bcd565b611a4e816040518060400160405280600381526020017f474250000000000000000000000000000000000000000000000000000000000081525061229b565b15611abb57600860009054906101000a900473ffffffffffffffffffffffffffffffffffffffff16600d60006101000a81548173ffffffffffffffffffffffffffffffffffffffff021916908373ffffffffffffffffffffffffffffffffffffffff160217905550611bcc565b611afa816040518060400160405280600381526020017f4a5059000000000000000000000000000000000000000000000000000000000081525061229b565b15611b6757600b60009054906101000a900473ffffffffffffffffffffffffffffffffffffffff16600d60006101000a81548173ffffffffffffffffffffffffffffffffffffffff021916908373ffffffffffffffffffffffffffffffffffffffff160217905550611bcb565b600c60009054906101000a900473ffffffffffffffffffffffffffffffffffffffff16600d60006101000a81548173ffffffffffffffffffffffffffffffffffffffff021916908373ffffffffffffffffffffffffffffffffffffffff1602179055505b5b5b5b600d60009054906101000a900473ffffffffffffffffffffffffffffffffffffffff166000806101000a81548173ffffffffffffffffffffffffffffffffffffffff021916908373ffffffffffffffffffffffffffffffffffffffff16021790555050565b60058060000154905081565b6001816000016000828254019250508190555050565b600081600001549050919050565b60008073ffffffffffffffffffffffffffffffffffffffff168673ffffffffffffffffffffffffffffffffffffffff161415611cd4576040517f08c379a0000000000000000000000000000000000000000000000000000000008152600401611ccb90612a53565b60405180910390fd5b3073ffffffffffffffffffffffffffffffffffffffff168673ffffffffffffffffffffffffffffffffffffffff161415611d43576040517f08c379a0000000000000000000000000000000000000000000000000000000008152600401611d3a90612ab3565b60405180910390fd5b3373ffffffffffffffffffffffffffffffffffffffff168673ffffffffffffffffffffffffffffffffffffffff161415611db2576040517f08c379a0000000000000000000000000000000000000000000000000000000008152600401611da990612a73565b60405180910390fd5b42841015611df5576040517f08c379a0000000000000000000000000000000000000000000000000000000008152600401611dec90612a13565b60405180910390fd5b611dff6005611c3f565b6000611e0b6005611c55565b90506040518061010001604052808873ffffffffffffffffffffffffffffffffffffffff1681526020013373ffffffffffffffffffffffffffffffffffffffff16815260200185815260200184815260200142815260200187815260200160008152602001600115158152506006600083815260200190815260200160002060008201518160000160006101000a81548173ffffffffffffffffffffffffffffffffffffffff021916908373ffffffffffffffffffffffffffffffffffffffff16021790555060208201518160010160006101000a81548173ffffffffffffffffffffffffffffffffffffffff021916908373ffffffffffffffffffffffffffffffffffffffff1602179055506040820151816002019080519060200190611f34929190612309565b506060820151816003019080519060200190611f51929190612309565b506080820151816004015560a0820151816005015560c0820151816006015560e08201518160070160006101000a81548160ff0219169083151502179055509050508673ffffffffffffffffffffffffffffffffffffffff163373ffffffffffffffffffffffffffffffffffffffff16827f97c453fdbaffdf8fdfa4ed4f05741c81a677a4f53ba880cb1b0517fe542d559287878b8b604051611ff794939291906129a0565b60405180910390a48091505095945050505050565b60008060066000848152602001908152602001600020604051806101000160405290816000820160009054906101000a900473ffffffffffffffffffffffffffffffffffffffff1673ffffffffffffffffffffffffffffffffffffffff1673ffffffffffffffffffffffffffffffffffffffff1681526020016001820160009054906101000a900473ffffffffffffffffffffffffffffffffffffffff1673ffffffffffffffffffffffffffffffffffffffff1673ffffffffffffffffffffffffffffffffffffffff1681526020016002820180546120ea90612d6a565b80601f016020809104026020016040519081016040528092919081815260200182805461211690612d6a565b80156121635780601f1061213857610100808354040283529160200191612163565b820191906000526020600020905b81548152906001019060200180831161214657829003601f168201915b5050505050815260200160038201805461217c90612d6a565b80601f01602080910402602001604051908101604052809291908181526020018280546121a890612d6a565b80156121f55780601f106121ca576101008083540402835291602001916121f5565b820191906000526020600020905b8154815290600101906020018083116121d857829003601f168201915b505050505081526020016004820154815260200160058201548152602001600682015481526020016007820160009054906101000a900460ff16151515158152505090508060800151421161224e576000915050612280565b806080015142111561227e57600181608001514261226c9190612c8c565b6122769190612dcd565b915050612280565b505b919050565b600081836122939190612c32565b905092915050565b600081518351146122af57600090506122c3565b818051906020012083805190602001201490505b92915050565b5080546122d590612d6a565b6000825580601f106122e75750612306565b601f016020900490600052602060002090810190612305919061238f565b5b50565b82805461231590612d6a565b90600052602060002090601f016020900481019282612337576000855561237e565b82601f1061235057805160ff191683800117855561237e565b8280016001018555821561237e579182015b8281111561237d578251825591602001919060010190612362565b5b50905061238b919061238f565b5090565b5b808211156123a8576000816000905550600101612390565b5090565b60006123bf6123ba84612b53565b612b2e565b9050828152602081018484840111156123d757600080fd5b6123e2848285612d28565b509392505050565b6000813590506123f98161308b565b92915050565b60008151905061240e816130a2565b92915050565b600082601f83011261242557600080fd5b81356124358482602086016123ac565b91505092915050565b60008135905061244d816130b9565b92915050565b600081519050612462816130b9565b92915050565b600081519050612477816130d0565b92915050565b600080600080600080600060e0888a03121561249857600080fd5b60006124a68a828b016123ea565b975050602088013567ffffffffffffffff8111156124c357600080fd5b6124cf8a828b01612414565b96505060406124e08a828b0161243e565b955050606088013567ffffffffffffffff8111156124fd57600080fd5b6125098a828b01612414565b945050608088013567ffffffffffffffff81111561252657600080fd5b6125328a828b01612414565b93505060a088013567ffffffffffffffff81111561254f57600080fd5b61255b8a828b01612414565b92505060c061256c8a828b0161243e565b91505092959891949750929550565b60006020828403121561258d57600080fd5b600082013567ffffffffffffffff8111156125a757600080fd5b6125b384828501612414565b91505092915050565b6000602082840312156125ce57600080fd5b60006125dc8482850161243e565b91505092915050565b600080600080600060a086880312156125fd57600080fd5b600061260b88828901612468565b955050602061261c888289016123ff565b945050604061262d88828901612453565b935050606061263e88828901612453565b925050608061264f88828901612468565b9150509295509295909350565b61266581612cc0565b82525050565b61267481612cd2565b82525050565b61268381612cde565b82525050565b600061269482612b84565b61269e8185612b9a565b93506126ae818560208601612d37565b6126b781612eba565b840191505092915050565b60006126cf601583612b9a565b91506126da82612ecb565b602082019050919050565b60006126f2602183612b9a565b91506126fd82612ef4565b604082019050919050565b6000612715601683612b9a565b915061272082612f43565b602082019050919050565b6000612738601a83612b9a565b915061274382612f6c565b602082019050919050565b600061275b601483612b9a565b915061276682612f95565b602082019050919050565b600061277e601283612b9a565b915061278982612fbe565b602082019050919050565b60006127a1600083612b8f565b91506127ac82612fe7565b600082019050919050565b60006127c4601d83612b9a565b91506127cf82612fea565b602082019050919050565b60006127e7601183612b9a565b91506127f282613013565b602082019050919050565b600061280a602983612b9a565b91506128158261303c565b604082019050919050565b61282981612d08565b82525050565b600061283a82612794565b9150819050919050565b6000602082019050612859600083018461265c565b92915050565b600061010082019050612875600083018b61265c565b612882602083018a61265c565b81810360408301526128948189612689565b905081810360608301526128a88188612689565b90506128b76080830187612820565b6128c460a0830186612820565b6128d160c0830185612820565b6128de60e083018461266b565b9998505050505050505050565b600061010082019050612901600083018b61265c565b61290e602083018a612820565b81810360408301526129208189612689565b905061292f6060830188612820565b81810360808301526129418187612689565b905081810360a08301526129558186612689565b905081810360c08301526129698185612689565b905061297860e0830184612820565b9998505050505050505050565b600060208201905061299a600083018461267a565b92915050565b600060808201905081810360008301526129ba8187612689565b905081810360208301526129ce8186612689565b90506129dd6040830185612820565b6129ea6060830184612820565b95945050505050565b60006020820190508181036000830152612a0c816126c2565b9050919050565b60006020820190508181036000830152612a2c816126e5565b9050919050565b60006020820190508181036000830152612a4c81612708565b9050919050565b60006020820190508181036000830152612a6c8161272b565b9050919050565b60006020820190508181036000830152612a8c8161274e565b9050919050565b60006020820190508181036000830152612aac81612771565b9050919050565b60006020820190508181036000830152612acc816127b7565b9050919050565b60006020820190508181036000830152612aec816127da565b9050919050565b60006020820190508181036000830152612b0c816127fd565b9050919050565b6000602082019050612b286000830184612820565b92915050565b6000612b38612b49565b9050612b448282612d9c565b919050565b6000604051905090565b600067ffffffffffffffff821115612b6e57612b6d612e8b565b5b612b7782612eba565b9050602081019050919050565b600081519050919050565b600081905092915050565b600082825260208201905092915050565b6000612bb682612d08565b9150612bc183612d08565b9250827fffffffffffffffffffffffffffffffffffffffffffffffffffffffffffffffff03821115612bf657612bf5612dfe565b5b828201905092915050565b6000612c0c82612d08565b9150612c1783612d08565b925082612c2757612c26612e2d565b5b828204905092915050565b6000612c3d82612d08565b9150612c4883612d08565b9250817fffffffffffffffffffffffffffffffffffffffffffffffffffffffffffffffff0483118215151615612c8157612c80612dfe565b5b828202905092915050565b6000612c9782612d08565b9150612ca283612d08565b925082821015612cb557612cb4612dfe565b5b828203905092915050565b6000612ccb82612ce8565b9050919050565b60008115159050919050565b6000819050919050565b600073ffffffffffffffffffffffffffffffffffffffff82169050919050565b6000819050919050565b600069ffffffffffffffffffff82169050919050565b82818337600083830152505050565b60005b83811015612d55578082015181840152602081019050612d3a565b83811115612d64576000848401525b50505050565b60006002820490506001821680612d8257607f821691505b60208210811415612d9657612d95612e5c565b5b50919050565b612da582612eba565b810181811067ffffffffffffffff82111715612dc457612dc3612e8b565b5b80604052505050565b6000612dd882612d08565b9150612de383612d08565b925082612df357612df2612e2d565b5b828206905092915050565b7f4e487b7100000000000000000000000000000000000000000000000000000000600052601160045260246000fd5b7f4e487b7100000000000000000000000000000000000000000000000000000000600052601260045260246000fd5b7f4e487b7100000000000000000000000000000000000000000000000000000000600052602260045260246000fd5b7f4e487b7100000000000000000000000000000000000000000000000000000000600052604160045260246000fd5b6000601f19601f8301169050919050565b7f73747265616d20646f6573206e6f742065786973740000000000000000000000600082015250565b7f53746172742074696d65206265666f726520626c6f636b2074696d657374616d60008201527f7000000000000000000000000000000000000000000000000000000000000000602082015250565b7f417661696c61626c652062616c616e6365206973203000000000000000000000600082015250565b7f53747265616d20746f20746865207a65726f2061646472657373000000000000600082015250565b7f53747265616d20746f207468652063616c6c6572000000000000000000000000600082015250565b7f5472616e73616374696f6e206661696c65640000000000000000000000000000600082015250565b50565b7f53747265616d20746f2074686520636f6e747261637420697473656c66000000600082015250565b7f4e6f7420616e2076616c69642075736572000000000000000000000000000000600082015250565b7f63616c6c6572206973206e6f742074686520726563697069656e74206f66207460008201527f68652073747265616d0000000000000000000000000000000000000000000000602082015250565b61309481612cc0565b811461309f57600080fd5b50565b6130ab81612cde565b81146130b657600080fd5b50565b6130c281612d08565b81146130cd57600080fd5b50565b6130d981612d12565b81146130e457600080fd5b5056fea26469706673582212208210d1b1c31615303d1f7974870511d36a8f6bb011b588e54a2facac1dfe8d0964736f6c63430008030033",
  "linkReferences": {},
  "deployedLinkReferences": {}
}