{
  "_format": "hh-sol-artifact-1",
  "contractName": "Payroll",
  "sourceName": "contracts/Payroll.sol",
  "abi": [
    {
      "inputs": [],
      "stateMutability": "nonpayable",
      "type": "constructor"
    },
    {
      "anonymous": false,
      "inputs": [
        {
          "indexed": true,
          "internalType": "uint256",
          "name": "streamId",
          "type": "uint256"
        },
        {
          "indexed": true,
          "internalType": "address",
          "name": "recipient",
          "type": "address"
        },
        {
          "indexed": false,
          "internalType": "uint256",
          "name": "balance",
          "type": "uint256"
        }
      ],
      "name": "CancelStream",
      "type": "event"
    },
    {
      "anonymous": false,
      "inputs": [
        {
          "indexed": true,
          "internalType": "uint256",
          "name": "streamId",
          "type": "uint256"
        },
        {
          "indexed": true,
          "internalType": "address",
          "name": "sender",
          "type": "address"
        },
        {
          "indexed": true,
          "internalType": "address",
          "name": "recipient",
          "type": "address"
        },
        {
          "indexed": false,
          "internalType": "uint256",
          "name": "balance",
          "type": "uint256"
        },
        {
          "indexed": false,
          "internalType": "uint256",
          "name": "prevTransacTime",
          "type": "uint256"
        }
      ],
      "name": "CreateStream",
      "type": "event"
    },
    {
      "anonymous": false,
      "inputs": [
        {
          "indexed": false,
          "internalType": "string",
          "name": "message",
          "type": "string"
        }
      ],
      "name": "Greet",
      "type": "event"
    },
    {
      "anonymous": false,
      "inputs": [
        {
          "indexed": true,
          "internalType": "uint256",
          "name": "streamId",
          "type": "uint256"
        },
        {
          "indexed": true,
          "internalType": "address",
          "name": "recipient",
          "type": "address"
        }
      ],
      "name": "WithdrawFromStream",
      "type": "event"
    },
    {
      "inputs": [
        {
          "internalType": "uint256",
          "name": "streamId",
          "type": "uint256"
        }
      ],
      "name": "balanceOf",
      "outputs": [
        {
          "internalType": "uint256",
          "name": "balance",
          "type": "uint256"
        }
      ],
      "stateMutability": "view",
      "type": "function"
    },
    {
      "inputs": [
        {
          "internalType": "uint256",
          "name": "streamId",
          "type": "uint256"
        }
      ],
      "name": "cancelStream",
      "outputs": [],
      "stateMutability": "nonpayable",
      "type": "function"
    },
    {
      "inputs": [],
      "name": "compIdCounter",
      "outputs": [
        {
          "internalType": "uint256",
          "name": "_value",
          "type": "uint256"
        }
      ],
      "stateMutability": "view",
      "type": "function"
    },
    {
      "inputs": [
        {
          "internalType": "address",
          "name": "recipient",
          "type": "address"
        },
        {
          "internalType": "uint256",
          "name": "empStartTime",
          "type": "uint256"
        },
        {
          "internalType": "string",
          "name": "name",
          "type": "string"
        },
        {
          "internalType": "uint256",
          "name": "annualSalary",
          "type": "uint256"
        },
        {
          "internalType": "string",
          "name": "country",
          "type": "string"
        },
        {
          "internalType": "string",
          "name": "localCurrency",
          "type": "string"
        },
        {
          "internalType": "string",
          "name": "settlementCurrency",
          "type": "string"
        },
        {
          "internalType": "uint256",
          "name": "frequency",
          "type": "uint256"
        }
      ],
      "name": "createCompensation",
      "outputs": [
        {
          "internalType": "uint256",
          "name": "compId",
          "type": "uint256"
        }
      ],
      "stateMutability": "nonpayable",
      "type": "function"
    },
    {
      "inputs": [],
      "name": "greet",
      "outputs": [],
      "stateMutability": "nonpayable",
      "type": "function"
    },
    {
      "inputs": [],
      "name": "owner",
      "outputs": [
        {
          "internalType": "address",
          "name": "",
          "type": "address"
        }
      ],
      "stateMutability": "view",
      "type": "function"
    },
    {
      "inputs": [],
      "name": "streamIdCounter",
      "outputs": [
        {
          "internalType": "uint256",
          "name": "_value",
          "type": "uint256"
        }
      ],
      "stateMutability": "view",
      "type": "function"
    },
    {
      "inputs": [
        {
          "internalType": "uint256",
          "name": "streamId",
          "type": "uint256"
        }
      ],
      "name": "withdrawFromStream",
      "outputs": [],
      "stateMutability": "nonpayable",
      "type": "function"
    }
  ],
  "bytecode": "0x608060405234801561001057600080fd5b50336000806101000a81548173ffffffffffffffffffffffffffffffffffffffff021916908373ffffffffffffffffffffffffffffffffffffffff160217905550611d11806100606000396000f3fe608060405234801561001057600080fd5b50600436106100885760003560e01c80638da5cb5b1161005b5780638da5cb5b146101135780639cc7f70814610131578063cfae321714610161578063d0cac50e1461016b57610088565b80632b645c041461008d5780633a597f48146100ab5780636db9241b146100c757806376744fc7146100e3575b600080fd5b610095610189565b6040516100a2919061196d565b60405180910390f35b6100c560048036038101906100c091906114d0565b610195565b005b6100e160048036038101906100dc91906114d0565b610532565b005b6100fd60048036038101906100f891906113be565b6108fa565b60405161010a919061196d565b60405180910390f35b61011b610a90565b6040516101289190611812565b60405180910390f35b61014b600480360381019061014691906114d0565b610ab4565b604051610158919061196d565b60405180910390f35b610169610d5a565b005b610173610d91565b604051610180919061196d565b60405180910390f35b60018060000154905081565b806003600082815260200190815260200160002060050160009054906101000a900460ff166101f9576040517f08c379a00000000000000000000000000000000000000000000000000000000081526004016101f09061182d565b60405180910390fd5b816003600082815260200190815260200160002060000160009054906101000a900473ffffffffffffffffffffffffffffffffffffffff1673ffffffffffffffffffffffffffffffffffffffff163373ffffffffffffffffffffffffffffffffffffffff161461029e576040517f08c379a00000000000000000000000000000000000000000000000000000000081526004016102959061194d565b60405180910390fd5b6000600360008581526020019081526020016000206040518060c00160405290816000820160009054906101000a900473ffffffffffffffffffffffffffffffffffffffff1673ffffffffffffffffffffffffffffffffffffffff1673ffffffffffffffffffffffffffffffffffffffff1681526020016001820160009054906101000a900473ffffffffffffffffffffffffffffffffffffffff1673ffffffffffffffffffffffffffffffffffffffff1673ffffffffffffffffffffffffffffffffffffffff1681526020016002820154815260200160038201548152602001600482015481526020016005820160009054906101000a900460ff161515151581525050905060006103b085610ab4565b9050600081116103f5576040517f08c379a00000000000000000000000000000000000000000000000000000000081526004016103ec9061188d565b60405180910390fd5b6000826000015173ffffffffffffffffffffffffffffffffffffffff1682620186a090604051610424906117fd565b600060405180830381858888f193505050503d8060008114610462576040519150601f19603f3d011682016040523d82523d6000602084013e610467565b606091505b50509050806104ab576040517f08c379a00000000000000000000000000000000000000000000000000000000081526004016104a2906118ed565b60405180910390fd5b60006003600088815260200190815260200160002060040181905550426003600088815260200190815260200160002060020181905550826000015173ffffffffffffffffffffffffffffffffffffffff16867f061bc02b2182b529640e1f4902ca787023ea0d94e620dd5fdb7af009a349dc9260405160405180910390a3505050505050565b806003600082815260200190815260200160002060050160009054906101000a900460ff16610596576040517f08c379a000000000000000000000000000000000000000000000000000000000815260040161058d9061182d565b60405180910390fd5b816003600082815260200190815260200160002060000160009054906101000a900473ffffffffffffffffffffffffffffffffffffffff1673ffffffffffffffffffffffffffffffffffffffff163373ffffffffffffffffffffffffffffffffffffffff161461063b576040517f08c379a00000000000000000000000000000000000000000000000000000000081526004016106329061194d565b60405180910390fd5b6000600360008581526020019081526020016000206040518060c00160405290816000820160009054906101000a900473ffffffffffffffffffffffffffffffffffffffff1673ffffffffffffffffffffffffffffffffffffffff1673ffffffffffffffffffffffffffffffffffffffff1681526020016001820160009054906101000a900473ffffffffffffffffffffffffffffffffffffffff1673ffffffffffffffffffffffffffffffffffffffff1673ffffffffffffffffffffffffffffffffffffffff1681526020016002820154815260200160038201548152602001600482015481526020016005820160009054906101000a900460ff1615151515815250509050600061074d85610ab4565b905060036000868152602001908152602001600020600080820160006101000a81549073ffffffffffffffffffffffffffffffffffffffff02191690556001820160006101000a81549073ffffffffffffffffffffffffffffffffffffffff02191690556002820160009055600382016000905560048201600090556005820160006101000a81549060ff0219169055505060008111156108a0576000826000015173ffffffffffffffffffffffffffffffffffffffff1682620186a090604051610817906117fd565b600060405180830381858888f193505050503d8060008114610855576040519150601f19603f3d011682016040523d82523d6000602084013e61085a565b606091505b505090508061089e576040517f08c379a0000000000000000000000000000000000000000000000000000000008152600401610895906118ed565b60405180910390fd5b505b816000015173ffffffffffffffffffffffffffffffffffffffff16857f2c1e95b216cd3924a2eeae8031710cc28201574f6549c6598068c752954a167e836040516108eb919061196d565b60405180910390a35050505050565b60006109066001610d9d565b6109106001610db3565b90506000601a876109219190611a84565b905060006001905080826109359190611a84565b91506040518061010001604052808c73ffffffffffffffffffffffffffffffffffffffff1681526020018b81526020018a8152602001898152602001888152602001878152602001868152602001858152506004600085815260200190815260200160002060008201518160000160006101000a81548173ffffffffffffffffffffffffffffffffffffffff021916908373ffffffffffffffffffffffffffffffffffffffff160217905550602082015181600101556040820151816002019080519060200190610a07929190611289565b50606082015181600301556080820151816004019080519060200190610a2e929190611289565b5060a0820151816005019080519060200190610a4b929190611289565b5060c0820151816006019080519060200190610a68929190611289565b5060e08201518160070155905050610a818b838c610dc1565b50505098975050505050505050565b60008054906101000a900473ffffffffffffffffffffffffffffffffffffffff1681565b6000816003600082815260200190815260200160002060050160009054906101000a900460ff16610b1a576040517f08c379a0000000000000000000000000000000000000000000000000000000008152600401610b119061182d565b60405180910390fd5b60008054906101000a900473ffffffffffffffffffffffffffffffffffffffff1673ffffffffffffffffffffffffffffffffffffffff163373ffffffffffffffffffffffffffffffffffffffff161480610bd557506003600084815260200190815260200160002060000160009054906101000a900473ffffffffffffffffffffffffffffffffffffffff1673ffffffffffffffffffffffffffffffffffffffff163373ffffffffffffffffffffffffffffffffffffffff16145b610c14576040517f08c379a0000000000000000000000000000000000000000000000000000000008152600401610c0b9061192d565b60405180910390fd5b6000600360008581526020019081526020016000206040518060c00160405290816000820160009054906101000a900473ffffffffffffffffffffffffffffffffffffffff1673ffffffffffffffffffffffffffffffffffffffff1673ffffffffffffffffffffffffffffffffffffffff1681526020016001820160009054906101000a900473ffffffffffffffffffffffffffffffffffffffff1673ffffffffffffffffffffffffffffffffffffffff1673ffffffffffffffffffffffffffffffffffffffff1681526020016002820154815260200160038201548152602001600482015481526020016005820160009054906101000a900460ff16151515158152505090506000610d268561111d565b90506000610d4183606001518361127390919063ffffffff16565b90508085610d4f9190611a2e565b945050505050919050565b7fefdeaaf566f7751d16a12c7fa8909eb74120f42cba334d07dd5246c48f1fba81604051610d879061184d565b60405180910390a1565b60028060000154905081565b6001816000016000828254019250508190555050565b600081600001549050919050565b60008073ffffffffffffffffffffffffffffffffffffffff168473ffffffffffffffffffffffffffffffffffffffff161415610e32576040517f08c379a0000000000000000000000000000000000000000000000000000000008152600401610e29906118ad565b60405180910390fd5b3073ffffffffffffffffffffffffffffffffffffffff168473ffffffffffffffffffffffffffffffffffffffff161415610ea1576040517f08c379a0000000000000000000000000000000000000000000000000000000008152600401610e989061190d565b60405180910390fd5b3373ffffffffffffffffffffffffffffffffffffffff168473ffffffffffffffffffffffffffffffffffffffff161415610f10576040517f08c379a0000000000000000000000000000000000000000000000000000000008152600401610f07906118cd565b60405180910390fd5b42821015610f53576040517f08c379a0000000000000000000000000000000000000000000000000000000008152600401610f4a9061186d565b60405180910390fd5b610f5d6002610d9d565b6000610f696002610db3565b90506040518060c001604052808673ffffffffffffffffffffffffffffffffffffffff1681526020013373ffffffffffffffffffffffffffffffffffffffff16815260200142815260200185815260200160008152602001600115158152506003600083815260200190815260200160002060008201518160000160006101000a81548173ffffffffffffffffffffffffffffffffffffffff021916908373ffffffffffffffffffffffffffffffffffffffff16021790555060208201518160010160006101000a81548173ffffffffffffffffffffffffffffffffffffffff021916908373ffffffffffffffffffffffffffffffffffffffff16021790555060408201518160020155606082015181600301556080820151816004015560a08201518160050160006101000a81548160ff0219169083151502179055509050508473ffffffffffffffffffffffffffffffffffffffff163373ffffffffffffffffffffffffffffffffffffffff16827f15a0b43b7cf786809ec85ca7ada9771787d8d4a1b68d5c12be6b28d6db3c9052878760405161110a929190611988565b60405180910390a4809150509392505050565b600080600360008481526020019081526020016000206040518060c00160405290816000820160009054906101000a900473ffffffffffffffffffffffffffffffffffffffff1673ffffffffffffffffffffffffffffffffffffffff1673ffffffffffffffffffffffffffffffffffffffff1681526020016001820160009054906101000a900473ffffffffffffffffffffffffffffffffffffffff1673ffffffffffffffffffffffffffffffffffffffff1673ffffffffffffffffffffffffffffffffffffffff1681526020016002820154815260200160038201548152602001600482015481526020016005820160009054906101000a900460ff16151515158152505090508060400151421161123a57600091505061126e565b806040015142111561126c576212750081604001514261125a9190611b0f565b6112649190611bc0565b91505061126e565b505b919050565b600081836112819190611ab5565b905092915050565b82805461129590611b8e565b90600052602060002090601f0160209004810192826112b757600085556112fe565b82601f106112d057805160ff19168380011785556112fe565b828001600101855582156112fe579182015b828111156112fd5782518255916020019190600101906112e2565b5b50905061130b919061130f565b5090565b5b80821115611328576000816000905550600101611310565b5090565b600061133f61133a846119e2565b6119b1565b90508281526020810184848401111561135757600080fd5b611362848285611b7f565b509392505050565b60008135905061137981611cad565b92915050565b600082601f83011261139057600080fd5b81356113a084826020860161132c565b91505092915050565b6000813590506113b881611cc4565b92915050565b600080600080600080600080610100898b0312156113db57600080fd5b60006113e98b828c0161136a565b98505060206113fa8b828c016113a9565b975050604089013567ffffffffffffffff81111561141757600080fd5b6114238b828c0161137f565b96505060606114348b828c016113a9565b955050608089013567ffffffffffffffff81111561145157600080fd5b61145d8b828c0161137f565b94505060a089013567ffffffffffffffff81111561147a57600080fd5b6114868b828c0161137f565b93505060c089013567ffffffffffffffff8111156114a357600080fd5b6114af8b828c0161137f565b92505060e06114c08b828c016113a9565b9150509295985092959890939650565b6000602082840312156114e257600080fd5b60006114f0848285016113a9565b91505092915050565b61150281611b43565b82525050565b6000611515601583611a1d565b91507f73747265616d20646f6573206e6f7420657869737400000000000000000000006000830152602082019050919050565b6000611555600c83611a1d565b91507f48656c6c6f20576f726c642100000000000000000000000000000000000000006000830152602082019050919050565b6000611595602183611a1d565b91507f53746172742074696d65206265666f726520626c6f636b2074696d657374616d60008301527f70000000000000000000000000000000000000000000000000000000000000006020830152604082019050919050565b60006115fb601683611a1d565b91507f417661696c61626c652062616c616e63652069732030000000000000000000006000830152602082019050919050565b600061163b601a83611a1d565b91507f53747265616d20746f20746865207a65726f20616464726573730000000000006000830152602082019050919050565b600061167b601483611a1d565b91507f53747265616d20746f207468652063616c6c65720000000000000000000000006000830152602082019050919050565b60006116bb601283611a1d565b91507f5472616e73616374696f6e206661696c656400000000000000000000000000006000830152602082019050919050565b60006116fb600083611a12565b9150600082019050919050565b6000611715601d83611a1d565b91507f53747265616d20746f2074686520636f6e747261637420697473656c660000006000830152602082019050919050565b6000611755601183611a1d565b91507f4e6f7420616e2076616c696420757365720000000000000000000000000000006000830152602082019050919050565b6000611795602983611a1d565b91507f63616c6c6572206973206e6f742074686520726563697069656e74206f66207460008301527f68652073747265616d00000000000000000000000000000000000000000000006020830152604082019050919050565b6117f781611b75565b82525050565b6000611808826116ee565b9150819050919050565b600060208201905061182760008301846114f9565b92915050565b6000602082019050818103600083015261184681611508565b9050919050565b6000602082019050818103600083015261186681611548565b9050919050565b6000602082019050818103600083015261188681611588565b9050919050565b600060208201905081810360008301526118a6816115ee565b9050919050565b600060208201905081810360008301526118c68161162e565b9050919050565b600060208201905081810360008301526118e68161166e565b9050919050565b60006020820190508181036000830152611906816116ae565b9050919050565b6000602082019050818103600083015261192681611708565b9050919050565b6000602082019050818103600083015261194681611748565b9050919050565b6000602082019050818103600083015261196681611788565b9050919050565b600060208201905061198260008301846117ee565b92915050565b600060408201905061199d60008301856117ee565b6119aa60208301846117ee565b9392505050565b6000604051905081810181811067ffffffffffffffff821117156119d8576119d7611c7e565b5b8060405250919050565b600067ffffffffffffffff8211156119fd576119fc611c7e565b5b601f19601f8301169050602081019050919050565b600081905092915050565b600082825260208201905092915050565b6000611a3982611b75565b9150611a4483611b75565b9250827fffffffffffffffffffffffffffffffffffffffffffffffffffffffffffffffff03821115611a7957611a78611bf1565b5b828201905092915050565b6000611a8f82611b75565b9150611a9a83611b75565b925082611aaa57611aa9611c20565b5b828204905092915050565b6000611ac082611b75565b9150611acb83611b75565b9250817fffffffffffffffffffffffffffffffffffffffffffffffffffffffffffffffff0483118215151615611b0457611b03611bf1565b5b828202905092915050565b6000611b1a82611b75565b9150611b2583611b75565b925082821015611b3857611b37611bf1565b5b828203905092915050565b6000611b4e82611b55565b9050919050565b600073ffffffffffffffffffffffffffffffffffffffff82169050919050565b6000819050919050565b82818337600083830152505050565b60006002820490506001821680611ba657607f821691505b60208210811415611bba57611bb9611c4f565b5b50919050565b6000611bcb82611b75565b9150611bd683611b75565b925082611be657611be5611c20565b5b828206905092915050565b7f4e487b7100000000000000000000000000000000000000000000000000000000600052601160045260246000fd5b7f4e487b7100000000000000000000000000000000000000000000000000000000600052601260045260246000fd5b7f4e487b7100000000000000000000000000000000000000000000000000000000600052602260045260246000fd5b7f4e487b7100000000000000000000000000000000000000000000000000000000600052604160045260246000fd5b611cb681611b43565b8114611cc157600080fd5b50565b611ccd81611b75565b8114611cd857600080fd5b5056fea2646970667358221220845a30a2e5b3fe608e50ed745a2cce4655ff9d6899054d8503364461d28a1b1864736f6c63430008000033",
  "linkReferences": {},
  "deployedLinkReferences": {}
}