{
  "_format": "hh-sol-artifact-1",
  "contractName": "Payroll",
  "sourceName": "contracts/Payroll.sol",
  "abi": [
    {
      "inputs": [],
      "stateMutability": "nonpayable",
      "type": "constructor"
    },
    {
      "anonymous": false,
      "inputs": [
        {
          "indexed": true,
          "internalType": "uint256",
          "name": "streamId",
          "type": "uint256"
        },
        {
          "indexed": false,
          "internalType": "uint256",
          "name": "balance",
          "type": "uint256"
        }
      ],
      "name": "BalanceOf",
      "type": "event"
    },
    {
      "anonymous": false,
      "inputs": [
        {
          "indexed": true,
          "internalType": "uint256",
          "name": "streamId",
          "type": "uint256"
        },
        {
          "indexed": true,
          "internalType": "address",
          "name": "recipient",
          "type": "address"
        },
        {
          "indexed": false,
          "internalType": "uint256",
          "name": "balance",
          "type": "uint256"
        }
      ],
      "name": "CancelStream",
      "type": "event"
    },
    {
      "anonymous": false,
      "inputs": [
        {
          "indexed": true,
          "internalType": "uint256",
          "name": "streamId",
          "type": "uint256"
        },
        {
          "indexed": true,
          "internalType": "address",
          "name": "sender",
          "type": "address"
        },
        {
          "indexed": true,
          "internalType": "address",
          "name": "recipient",
          "type": "address"
        },
        {
          "indexed": false,
          "internalType": "string",
          "name": "localCurrency",
          "type": "string"
        },
        {
          "indexed": false,
          "internalType": "string",
          "name": "settlementCurrency",
          "type": "string"
        },
        {
          "indexed": false,
          "internalType": "uint256",
          "name": "balance",
          "type": "uint256"
        },
        {
          "indexed": false,
          "internalType": "uint256",
          "name": "prevTransacTime",
          "type": "uint256"
        }
      ],
      "name": "CreateStream",
      "type": "event"
    },
    {
      "anonymous": false,
      "inputs": [
        {
          "indexed": true,
          "internalType": "uint256",
          "name": "streamId",
          "type": "uint256"
        },
        {
          "indexed": true,
          "internalType": "address",
          "name": "recipient",
          "type": "address"
        }
      ],
      "name": "WithdrawFromStream",
      "type": "event"
    },
    {
      "inputs": [
        {
          "internalType": "uint256",
          "name": "streamId",
          "type": "uint256"
        }
      ],
      "name": "balanceOf",
      "outputs": [
        {
          "internalType": "uint256",
          "name": "balance",
          "type": "uint256"
        }
      ],
      "stateMutability": "nonpayable",
      "type": "function"
    },
    {
      "inputs": [
        {
          "internalType": "uint256",
          "name": "streamId",
          "type": "uint256"
        }
      ],
      "name": "cancelStream",
      "outputs": [],
      "stateMutability": "nonpayable",
      "type": "function"
    },
    {
      "inputs": [
        {
          "internalType": "uint256",
          "name": "",
          "type": "uint256"
        }
      ],
      "name": "comp",
      "outputs": [
        {
          "internalType": "address",
          "name": "recipient",
          "type": "address"
        },
        {
          "internalType": "uint256",
          "name": "empStartTime",
          "type": "uint256"
        },
        {
          "internalType": "string",
          "name": "name",
          "type": "string"
        },
        {
          "internalType": "uint256",
          "name": "annualSalary",
          "type": "uint256"
        },
        {
          "internalType": "string",
          "name": "country",
          "type": "string"
        },
        {
          "internalType": "string",
          "name": "localCurrency",
          "type": "string"
        },
        {
          "internalType": "string",
          "name": "settlementCurrency",
          "type": "string"
        },
        {
          "internalType": "uint256",
          "name": "frequency",
          "type": "uint256"
        }
      ],
      "stateMutability": "view",
      "type": "function"
    },
    {
      "inputs": [],
      "name": "compIdCounter",
      "outputs": [
        {
          "internalType": "uint256",
          "name": "_value",
          "type": "uint256"
        }
      ],
      "stateMutability": "view",
      "type": "function"
    },
    {
      "inputs": [
        {
          "internalType": "address",
          "name": "recipient",
          "type": "address"
        },
        {
          "internalType": "uint256",
          "name": "deposit",
          "type": "uint256"
        },
        {
          "internalType": "string",
          "name": "name",
          "type": "string"
        },
        {
          "internalType": "uint256",
          "name": "annualSalary",
          "type": "uint256"
        },
        {
          "internalType": "string",
          "name": "country",
          "type": "string"
        },
        {
          "internalType": "string",
          "name": "localCurrency",
          "type": "string"
        },
        {
          "internalType": "string",
          "name": "settlementCurrency",
          "type": "string"
        },
        {
          "internalType": "uint256",
          "name": "frequency",
          "type": "uint256"
        }
      ],
      "name": "createCompensation",
      "outputs": [
        {
          "internalType": "uint256",
          "name": "compId",
          "type": "uint256"
        }
      ],
      "stateMutability": "nonpayable",
      "type": "function"
    },
    {
      "inputs": [
        {
          "internalType": "string",
          "name": "_currency",
          "type": "string"
        }
      ],
      "name": "getLatestPrice",
      "outputs": [
        {
          "internalType": "int256",
          "name": "",
          "type": "int256"
        }
      ],
      "stateMutability": "view",
      "type": "function"
    },
    {
      "inputs": [],
      "name": "owner",
      "outputs": [
        {
          "internalType": "address",
          "name": "",
          "type": "address"
        }
      ],
      "stateMutability": "view",
      "type": "function"
    },
    {
      "inputs": [
        {
          "internalType": "string",
          "name": "_currency",
          "type": "string"
        }
      ],
      "name": "setPricebySymbol",
      "outputs": [],
      "stateMutability": "nonpayable",
      "type": "function"
    },
    {
      "inputs": [],
      "name": "streamIdCounter",
      "outputs": [
        {
          "internalType": "uint256",
          "name": "_value",
          "type": "uint256"
        }
      ],
      "stateMutability": "view",
      "type": "function"
    },
    {
      "inputs": [
        {
          "internalType": "uint256",
          "name": "",
          "type": "uint256"
        }
      ],
      "name": "streams",
      "outputs": [
        {
          "internalType": "address",
          "name": "recipient",
          "type": "address"
        },
        {
          "internalType": "address",
          "name": "sender",
          "type": "address"
        },
        {
          "internalType": "string",
          "name": "localCurrency",
          "type": "string"
        },
        {
          "internalType": "string",
          "name": "settlementCurrency",
          "type": "string"
        },
        {
          "internalType": "uint256",
          "name": "prevTransacTime",
          "type": "uint256"
        },
        {
          "internalType": "uint256",
          "name": "rate",
          "type": "uint256"
        },
        {
          "internalType": "uint256",
          "name": "balance",
          "type": "uint256"
        },
        {
          "internalType": "bool",
          "name": "isEntity",
          "type": "bool"
        }
      ],
      "stateMutability": "view",
      "type": "function"
    },
    {
      "inputs": [
        {
          "internalType": "uint256",
          "name": "streamId",
          "type": "uint256"
        }
      ],
      "name": "withdrawFromStream",
      "outputs": [],
      "stateMutability": "nonpayable",
      "type": "function"
    }
  ],
  "bytecode": "0x60806040527321c095d2ada464a294956ea058077f14f66535af600560006101000a81548173ffffffffffffffffffffffffffffffffffffffff021916908373ffffffffffffffffffffffffffffffffffffffff1602179055507378f9e60608bf48a1155b4b2a5e31f32318a1d85f600660006101000a81548173ffffffffffffffffffffffffffffffffffffffff021916908373ffffffffffffffffffffffffffffffffffffffff160217905550737b17a813eec55515fb8f49f2ef51502bc54dd40f600760006101000a81548173ffffffffffffffffffffffffffffffffffffffff021916908373ffffffffffffffffffffffffffffffffffffffff160217905550733ae2f46a2d84e3d5590ee6ee5116b80caf77deca600860006101000a81548173ffffffffffffffffffffffffffffffffffffffff021916908373ffffffffffffffffffffffffffffffffffffffff16021790555073a24de01df22b63d23ebc1882a5e3d4ec0d907bfb600960006101000a81548173ffffffffffffffffffffffffffffffffffffffff021916908373ffffffffffffffffffffffffffffffffffffffff1602179055506301e13380600a55670de0b6b3a7640000600b55610ccb600c5573d92e713d051c37ebb2561803a3b5fbabc4962431600e60006101000a81548173ffffffffffffffffffffffffffffffffffffffff021916908373ffffffffffffffffffffffffffffffffffffffff160217905550735ed8bd53b0c3fa3deabd345430b1a3a6a4e8bd7c600f60006101000a81548173ffffffffffffffffffffffffffffffffffffffff021916908373ffffffffffffffffffffffffffffffffffffffff16021790555073f39fd6e51aad88f6f4ce6ab8827279cfffb92266601060006101000a81548173ffffffffffffffffffffffffffffffffffffffff021916908373ffffffffffffffffffffffffffffffffffffffff1602179055503480156102d257600080fd5b5033600d60006101000a81548173ffffffffffffffffffffffffffffffffffffffff021916908373ffffffffffffffffffffffffffffffffffffffff160217905550600560009054906101000a900473ffffffffffffffffffffffffffffffffffffffff166000806101000a81548173ffffffffffffffffffffffffffffffffffffffff021916908373ffffffffffffffffffffffffffffffffffffffff160217905550600660009054906101000a900473ffffffffffffffffffffffffffffffffffffffff16600160006101000a81548173ffffffffffffffffffffffffffffffffffffffff021916908373ffffffffffffffffffffffffffffffffffffffff160217905550600760009054906101000a900473ffffffffffffffffffffffffffffffffffffffff16600260006101000a81548173ffffffffffffffffffffffffffffffffffffffff021916908373ffffffffffffffffffffffffffffffffffffffff160217905550600860009054906101000a900473ffffffffffffffffffffffffffffffffffffffff16600360006101000a81548173ffffffffffffffffffffffffffffffffffffffff021916908373ffffffffffffffffffffffffffffffffffffffff160217905550600960009054906101000a900473ffffffffffffffffffffffffffffffffffffffff16600460006101000a81548173ffffffffffffffffffffffffffffffffffffffff021916908373ffffffffffffffffffffffffffffffffffffffff160217905550613467806105116000396000f3fe608060405234801561001057600080fd5b50600436106100a95760003560e01c806376744fc71161007157806376744fc7146101725780638da5cb5b146101a25780639cc7f708146101c0578063d0810d59146101f0578063d0cac50e1461020c578063f66a1b711461022a576100a9565b80632b645c04146100ae5780633a597f48146100cc57806364d60d91146100e85780636db9241b1461011f5780637181b22d1461013b575b600080fd5b6100b661025a565b6040516100c39190612e28565b60405180910390f35b6100e660048036038101906100e19190612865565b610266565b005b61010260048036038101906100fd9190612865565b6107e5565b604051610116989796959493929190612b2b565b60405180910390f35b61013960048036038101906101349190612865565b61098a565b005b61015560048036038101906101509190612865565b610eef565b604051610169989796959493929190612be0565b60405180910390f35b61018c600480360381019061018791906126e9565b611177565b6040516101999190612e28565b60405180910390f35b6101aa6114a2565b6040516101b79190612b10565b60405180910390f35b6101da60048036038101906101d59190612865565b6114c8565b6040516101e79190612e28565b60405180910390f35b61020a60048036038101906102059190612824565b6118fc565b005b610214611c16565b6040516102219190612e28565b60405180910390f35b610244600480360381019061023f9190612824565b611c22565b6040516102519190612c7a565b60405180910390f35b60118060000154905081565b806013600082815260200190815260200160002060070160009054906101000a900460ff166102ca576040517f08c379a00000000000000000000000000000000000000000000000000000000081526004016102c190612ce8565b60405180910390fd5b81600d60009054906101000a900473ffffffffffffffffffffffffffffffffffffffff1673ffffffffffffffffffffffffffffffffffffffff163373ffffffffffffffffffffffffffffffffffffffff16148061038857506013600082815260200190815260200160002060000160009054906101000a900473ffffffffffffffffffffffffffffffffffffffff1673ffffffffffffffffffffffffffffffffffffffff163373ffffffffffffffffffffffffffffffffffffffff16145b6103c7576040517f08c379a00000000000000000000000000000000000000000000000000000000081526004016103be90612e08565b60405180910390fd5b600060136000858152602001908152602001600020604051806101000160405290816000820160009054906101000a900473ffffffffffffffffffffffffffffffffffffffff1673ffffffffffffffffffffffffffffffffffffffff1673ffffffffffffffffffffffffffffffffffffffff1681526020016001820160009054906101000a900473ffffffffffffffffffffffffffffffffffffffff1673ffffffffffffffffffffffffffffffffffffffff1673ffffffffffffffffffffffffffffffffffffffff1681526020016002820180546104a49061307f565b80601f01602080910402602001604051908101604052809291908181526020018280546104d09061307f565b801561051d5780601f106104f25761010080835404028352916020019161051d565b820191906000526020600020905b81548152906001019060200180831161050057829003601f168201915b505050505081526020016003820180546105369061307f565b80601f01602080910402602001604051908101604052809291908181526020018280546105629061307f565b80156105af5780601f10610584576101008083540402835291602001916105af565b820191906000526020600020905b81548152906001019060200180831161059257829003601f168201915b505050505081526020016004820154815260200160058201548152602001600682015481526020016007820160009054906101000a900460ff161515151581525050905060006105fe856114c8565b905060008111610643576040517f08c379a000000000000000000000000000000000000000000000000000000000815260040161063a90612d28565b60405180910390fd5b6000600f60009054906101000a900473ffffffffffffffffffffffffffffffffffffffff16905060008173ffffffffffffffffffffffffffffffffffffffff1663a9059cbb601060009054906101000a900473ffffffffffffffffffffffffffffffffffffffff16856040518363ffffffff1660e01b81526004016106c9929190612bb7565b602060405180830381600087803b1580156106e357600080fd5b505af11580156106f7573d6000803e3d6000fd5b505050506040513d601f19601f8201168201806040525081019061071b91906127fb565b90508061075d576040517f08c379a000000000000000000000000000000000000000000000000000000000815260040161075490612da8565b60405180910390fd5b60006013600089815260200190815260200160002060060181905550426013600089815260200190815260200160002060040181905550836000015173ffffffffffffffffffffffffffffffffffffffff16877f061bc02b2182b529640e1f4902ca787023ea0d94e620dd5fdb7af009a349dc9260405160405180910390a350505050505050565b60136020528060005260406000206000915090508060000160009054906101000a900473ffffffffffffffffffffffffffffffffffffffff16908060010160009054906101000a900473ffffffffffffffffffffffffffffffffffffffff16908060020180546108549061307f565b80601f01602080910402602001604051908101604052809291908181526020018280546108809061307f565b80156108cd5780601f106108a2576101008083540402835291602001916108cd565b820191906000526020600020905b8154815290600101906020018083116108b057829003601f168201915b5050505050908060030180546108e29061307f565b80601f016020809104026020016040519081016040528092919081815260200182805461090e9061307f565b801561095b5780601f106109305761010080835404028352916020019161095b565b820191906000526020600020905b81548152906001019060200180831161093e57829003601f168201915b5050505050908060040154908060050154908060060154908060070160009054906101000a900460ff16905088565b806013600082815260200190815260200160002060070160009054906101000a900460ff166109ee576040517f08c379a00000000000000000000000000000000000000000000000000000000081526004016109e590612ce8565b60405180910390fd5b81600d60009054906101000a900473ffffffffffffffffffffffffffffffffffffffff1673ffffffffffffffffffffffffffffffffffffffff163373ffffffffffffffffffffffffffffffffffffffff161480610aac57506013600082815260200190815260200160002060000160009054906101000a900473ffffffffffffffffffffffffffffffffffffffff1673ffffffffffffffffffffffffffffffffffffffff163373ffffffffffffffffffffffffffffffffffffffff16145b610aeb576040517f08c379a0000000000000000000000000000000000000000000000000000000008152600401610ae290612e08565b60405180910390fd5b600060136000858152602001908152602001600020604051806101000160405290816000820160009054906101000a900473ffffffffffffffffffffffffffffffffffffffff1673ffffffffffffffffffffffffffffffffffffffff1673ffffffffffffffffffffffffffffffffffffffff1681526020016001820160009054906101000a900473ffffffffffffffffffffffffffffffffffffffff1673ffffffffffffffffffffffffffffffffffffffff1673ffffffffffffffffffffffffffffffffffffffff168152602001600282018054610bc89061307f565b80601f0160208091040260200160405190810160405280929190818152602001828054610bf49061307f565b8015610c415780601f10610c1657610100808354040283529160200191610c41565b820191906000526020600020905b815481529060010190602001808311610c2457829003601f168201915b50505050508152602001600382018054610c5a9061307f565b80601f0160208091040260200160405190810160405280929190818152602001828054610c869061307f565b8015610cd35780601f10610ca857610100808354040283529160200191610cd3565b820191906000526020600020905b815481529060010190602001808311610cb657829003601f168201915b505050505081526020016004820154815260200160058201548152602001600682015481526020016007820160009054906101000a900460ff16151515158152505090506000610d22856114c8565b905060136000868152602001908152602001600020600080820160006101000a81549073ffffffffffffffffffffffffffffffffffffffff02191690556001820160006101000a81549073ffffffffffffffffffffffffffffffffffffffff0219169055600282016000610d969190612520565b600382016000610da69190612520565b6004820160009055600582016000905560068201600090556007820160006101000a81549060ff021916905550506000811115610e95576000826000015173ffffffffffffffffffffffffffffffffffffffff1682620186a090604051610e0c90612afb565b600060405180830381858888f193505050503d8060008114610e4a576040519150601f19603f3d011682016040523d82523d6000602084013e610e4f565b606091505b5050905080610e93576040517f08c379a0000000000000000000000000000000000000000000000000000000008152600401610e8a90612da8565b60405180910390fd5b505b816000015173ffffffffffffffffffffffffffffffffffffffff16857f2c1e95b216cd3924a2eeae8031710cc28201574f6549c6598068c752954a167e83604051610ee09190612e28565b60405180910390a35050505050565b60146020528060005260406000206000915090508060000160009054906101000a900473ffffffffffffffffffffffffffffffffffffffff1690806001015490806002018054610f3e9061307f565b80601f0160208091040260200160405190810160405280929190818152602001828054610f6a9061307f565b8015610fb75780601f10610f8c57610100808354040283529160200191610fb7565b820191906000526020600020905b815481529060010190602001808311610f9a57829003601f168201915b505050505090806003015490806004018054610fd29061307f565b80601f0160208091040260200160405190810160405280929190818152602001828054610ffe9061307f565b801561104b5780601f106110205761010080835404028352916020019161104b565b820191906000526020600020905b81548152906001019060200180831161102e57829003601f168201915b5050505050908060050180546110609061307f565b80601f016020809104026020016040519081016040528092919081815260200182805461108c9061307f565b80156110d95780601f106110ae576101008083540402835291602001916110d9565b820191906000526020600020905b8154815290600101906020018083116110bc57829003601f168201915b5050505050908060060180546110ee9061307f565b80601f016020809104026020016040519081016040528092919081815260200182805461111a9061307f565b80156111675780601f1061113c57610100808354040283529160200191611167565b820191906000526020600020905b81548152906001019060200180831161114a57829003601f168201915b5050505050908060070154905088565b60008073ffffffffffffffffffffffffffffffffffffffff168973ffffffffffffffffffffffffffffffffffffffff1614156111e8576040517f08c379a00000000000000000000000000000000000000000000000000000000081526004016111df90612d48565b60405180910390fd5b3073ffffffffffffffffffffffffffffffffffffffff168973ffffffffffffffffffffffffffffffffffffffff161415611257576040517f08c379a000000000000000000000000000000000000000000000000000000000815260040161124e90612dc8565b60405180910390fd5b3373ffffffffffffffffffffffffffffffffffffffff168973ffffffffffffffffffffffffffffffffffffffff1614156112c6576040517f08c379a00000000000000000000000000000000000000000000000000000000081526004016112bd90612d68565b60405180910390fd5b60008811611309576040517f08c379a000000000000000000000000000000000000000000000000000000000815260040161130090612d88565b60405180910390fd5b6113136011611ea2565b61131d6011611eb8565b905060004290506000600a54600b54896113379190612f47565b6113419190612f16565b90506040518061010001604052808c73ffffffffffffffffffffffffffffffffffffffff1681526020018381526020018a8152602001898152602001888152602001878152602001868152602001858152506014600085815260200190815260200160002060008201518160000160006101000a81548173ffffffffffffffffffffffffffffffffffffffff021916908373ffffffffffffffffffffffffffffffffffffffff160217905550602082015181600101556040820151816002019080519060200190611413929190612560565b5060608201518160030155608082015181600401908051906020019061143a929190612560565b5060a0820151816005019080519060200190611457929190612560565b5060c0820151816006019080519060200190611474929190612560565b5060e0820151816007015590505060006114918c83858a8a611ec6565b905050505098975050505050505050565b600d60009054906101000a900473ffffffffffffffffffffffffffffffffffffffff1681565b6000816013600082815260200190815260200160002060070160009054906101000a900460ff1661152e576040517f08c379a000000000000000000000000000000000000000000000000000000000815260040161152590612ce8565b60405180910390fd5b600d60009054906101000a900473ffffffffffffffffffffffffffffffffffffffff1673ffffffffffffffffffffffffffffffffffffffff163373ffffffffffffffffffffffffffffffffffffffff1614806115eb57506013600084815260200190815260200160002060000160009054906101000a900473ffffffffffffffffffffffffffffffffffffffff1673ffffffffffffffffffffffffffffffffffffffff163373ffffffffffffffffffffffffffffffffffffffff16145b61162a576040517f08c379a000000000000000000000000000000000000000000000000000000000815260040161162190612de8565b60405180910390fd5b600060136000858152602001908152602001600020604051806101000160405290816000820160009054906101000a900473ffffffffffffffffffffffffffffffffffffffff1673ffffffffffffffffffffffffffffffffffffffff1673ffffffffffffffffffffffffffffffffffffffff1681526020016001820160009054906101000a900473ffffffffffffffffffffffffffffffffffffffff1673ffffffffffffffffffffffffffffffffffffffff1673ffffffffffffffffffffffffffffffffffffffff1681526020016002820180546117079061307f565b80601f01602080910402602001604051908101604052809291908181526020018280546117339061307f565b80156117805780601f1061175557610100808354040283529160200191611780565b820191906000526020600020905b81548152906001019060200180831161176357829003601f168201915b505050505081526020016003820180546117999061307f565b80601f01602080910402602001604051908101604052809291908181526020018280546117c59061307f565b80156118125780601f106117e757610100808354040283529160200191611812565b820191906000526020600020905b8154815290600101906020018083116117f557829003601f168201915b505050505081526020016004820154815260200160058201548152602001600682015481526020016007820160009054906101000a900460ff161515151581525050905060006118618561226f565b9050600061187c8360a00151836124dc90919063ffffffff16565b9050600061188d8460600151611c22565b9050806305f5e100836118a09190612f47565b6118aa9190612f16565b915081866118b89190612ec0565b9550867f3da98db7403f4d9ec707ac7d1226f981ceba3ceadd404944afaf74738188e7de876040516118ea9190612e28565b60405180910390a25050505050919050565b61193b816040518060400160405280600381526020017f41554400000000000000000000000000000000000000000000000000000000008152506124f2565b156119a857600560009054906101000a900473ffffffffffffffffffffffffffffffffffffffff16601560006101000a81548173ffffffffffffffffffffffffffffffffffffffff021916908373ffffffffffffffffffffffffffffffffffffffff160217905550611c13565b6119e7816040518060400160405280600381526020017f45555200000000000000000000000000000000000000000000000000000000008152506124f2565b15611a5457600660009054906101000a900473ffffffffffffffffffffffffffffffffffffffff16601560006101000a81548173ffffffffffffffffffffffffffffffffffffffff021916908373ffffffffffffffffffffffffffffffffffffffff160217905550611c12565b611a93816040518060400160405280600381526020017f47425000000000000000000000000000000000000000000000000000000000008152506124f2565b15611b0057600760009054906101000a900473ffffffffffffffffffffffffffffffffffffffff16601560006101000a81548173ffffffffffffffffffffffffffffffffffffffff021916908373ffffffffffffffffffffffffffffffffffffffff160217905550611c11565b611b3f816040518060400160405280600381526020017f4a505900000000000000000000000000000000000000000000000000000000008152506124f2565b15611bac57600860009054906101000a900473ffffffffffffffffffffffffffffffffffffffff16601560006101000a81548173ffffffffffffffffffffffffffffffffffffffff021916908373ffffffffffffffffffffffffffffffffffffffff160217905550611c10565b600960009054906101000a900473ffffffffffffffffffffffffffffffffffffffff16601560006101000a81548173ffffffffffffffffffffffffffffffffffffffff021916908373ffffffffffffffffffffffffffffffffffffffff1602179055505b5b5b5b50565b60128060000154905081565b600080611c64836040518060400160405280600381526020017f41554400000000000000000000000000000000000000000000000000000000008152506124f2565b15611c915760008054906101000a900473ffffffffffffffffffffffffffffffffffffffff169050611e04565b611cd0836040518060400160405280600381526020017f45555200000000000000000000000000000000000000000000000000000000008152506124f2565b15611cff57600160009054906101000a900473ffffffffffffffffffffffffffffffffffffffff169050611e03565b611d3e836040518060400160405280600381526020017f47425000000000000000000000000000000000000000000000000000000000008152506124f2565b15611d6d57600260009054906101000a900473ffffffffffffffffffffffffffffffffffffffff169050611e02565b611dac836040518060400160405280600381526020017f4a505900000000000000000000000000000000000000000000000000000000008152506124f2565b15611ddb57600360009054906101000a900473ffffffffffffffffffffffffffffffffffffffff169050611e01565b600460009054906101000a900473ffffffffffffffffffffffffffffffffffffffff1690505b5b5b5b60008060008060008573ffffffffffffffffffffffffffffffffffffffff1663feaf968c6040518163ffffffff1660e01b815260040160a06040518083038186803b158015611e5257600080fd5b505afa158015611e66573d6000803e3d6000fd5b505050506040513d601f19601f82011682018060405250810190611e8a919061288e565b94509450945094509450839650505050505050919050565b6001816000016000828254019250508190555050565b600081600001549050919050565b60008073ffffffffffffffffffffffffffffffffffffffff168673ffffffffffffffffffffffffffffffffffffffff161415611f37576040517f08c379a0000000000000000000000000000000000000000000000000000000008152600401611f2e90612d48565b60405180910390fd5b3073ffffffffffffffffffffffffffffffffffffffff168673ffffffffffffffffffffffffffffffffffffffff161415611fa6576040517f08c379a0000000000000000000000000000000000000000000000000000000008152600401611f9d90612dc8565b60405180910390fd5b3373ffffffffffffffffffffffffffffffffffffffff168673ffffffffffffffffffffffffffffffffffffffff161415612015576040517f08c379a000000000000000000000000000000000000000000000000000000000815260040161200c90612d68565b60405180910390fd5b42841015612058576040517f08c379a000000000000000000000000000000000000000000000000000000000815260040161204f90612d08565b60405180910390fd5b6120626012611ea2565b600061206e6012611eb8565b90506040518061010001604052808873ffffffffffffffffffffffffffffffffffffffff1681526020013373ffffffffffffffffffffffffffffffffffffffff16815260200185815260200184815260200142815260200187815260200160008152602001600115158152506013600083815260200190815260200160002060008201518160000160006101000a81548173ffffffffffffffffffffffffffffffffffffffff021916908373ffffffffffffffffffffffffffffffffffffffff16021790555060208201518160010160006101000a81548173ffffffffffffffffffffffffffffffffffffffff021916908373ffffffffffffffffffffffffffffffffffffffff1602179055506040820151816002019080519060200190612197929190612560565b5060608201518160030190805190602001906121b4929190612560565b506080820151816004015560a0820151816005015560c0820151816006015560e08201518160070160006101000a81548160ff0219169083151502179055509050508673ffffffffffffffffffffffffffffffffffffffff163373ffffffffffffffffffffffffffffffffffffffff16827f97c453fdbaffdf8fdfa4ed4f05741c81a677a4f53ba880cb1b0517fe542d559287878b8b60405161225a9493929190612c95565b60405180910390a48091505095945050505050565b60008060136000848152602001908152602001600020604051806101000160405290816000820160009054906101000a900473ffffffffffffffffffffffffffffffffffffffff1673ffffffffffffffffffffffffffffffffffffffff1673ffffffffffffffffffffffffffffffffffffffff1681526020016001820160009054906101000a900473ffffffffffffffffffffffffffffffffffffffff1673ffffffffffffffffffffffffffffffffffffffff1673ffffffffffffffffffffffffffffffffffffffff16815260200160028201805461234d9061307f565b80601f01602080910402602001604051908101604052809291908181526020018280546123799061307f565b80156123c65780601f1061239b576101008083540402835291602001916123c6565b820191906000526020600020905b8154815290600101906020018083116123a957829003601f168201915b505050505081526020016003820180546123df9061307f565b80601f016020809104026020016040519081016040528092919081815260200182805461240b9061307f565b80156124585780601f1061242d57610100808354040283529160200191612458565b820191906000526020600020905b81548152906001019060200180831161243b57829003601f168201915b505050505081526020016004820154815260200160058201548152602001600682015481526020016007820160009054906101000a900460ff1615151515815250509050806080015142116124b15760009150506124d7565b80608001514211156124d5578060800151426124cd9190612fa1565b9150506124d7565b505b919050565b600081836124ea9190612f47565b905092915050565b60008151835114612506576000905061251a565b818051906020012083805190602001201490505b92915050565b50805461252c9061307f565b6000825580601f1061253e575061255d565b601f01602090049060005260206000209081019061255c91906125e6565b5b50565b82805461256c9061307f565b90600052602060002090601f01602090048101928261258e57600085556125d5565b82601f106125a757805160ff19168380011785556125d5565b828001600101855582156125d5579182015b828111156125d45782518255916020019190600101906125b9565b5b5090506125e291906125e6565b5090565b5b808211156125ff5760008160009055506001016125e7565b5090565b600061261661261184612e68565b612e43565b90508281526020810184848401111561262e57600080fd5b61263984828561303d565b509392505050565b600081359050612650816133be565b92915050565b600081519050612665816133d5565b92915050565b60008151905061267a816133ec565b92915050565b600082601f83011261269157600080fd5b81356126a1848260208601612603565b91505092915050565b6000813590506126b981613403565b92915050565b6000815190506126ce81613403565b92915050565b6000815190506126e38161341a565b92915050565b600080600080600080600080610100898b03121561270657600080fd5b60006127148b828c01612641565b98505060206127258b828c016126aa565b975050604089013567ffffffffffffffff81111561274257600080fd5b61274e8b828c01612680565b965050606061275f8b828c016126aa565b955050608089013567ffffffffffffffff81111561277c57600080fd5b6127888b828c01612680565b94505060a089013567ffffffffffffffff8111156127a557600080fd5b6127b18b828c01612680565b93505060c089013567ffffffffffffffff8111156127ce57600080fd5b6127da8b828c01612680565b92505060e06127eb8b828c016126aa565b9150509295985092959890939650565b60006020828403121561280d57600080fd5b600061281b84828501612656565b91505092915050565b60006020828403121561283657600080fd5b600082013567ffffffffffffffff81111561285057600080fd5b61285c84828501612680565b91505092915050565b60006020828403121561287757600080fd5b6000612885848285016126aa565b91505092915050565b600080600080600060a086880312156128a657600080fd5b60006128b4888289016126d4565b95505060206128c58882890161266b565b94505060406128d6888289016126bf565b93505060606128e7888289016126bf565b92505060806128f8888289016126d4565b9150509295509295909350565b61290e81612fd5565b82525050565b61291d81612fe7565b82525050565b61292c81612ff3565b82525050565b600061293d82612e99565b6129478185612eaf565b935061295781856020860161304c565b6129608161319e565b840191505092915050565b6000612978601583612eaf565b9150612983826131af565b602082019050919050565b600061299b602183612eaf565b91506129a6826131d8565b604082019050919050565b60006129be601683612eaf565b91506129c982613227565b602082019050919050565b60006129e1601a83612eaf565b91506129ec82613250565b602082019050919050565b6000612a04601483612eaf565b9150612a0f82613279565b602082019050919050565b6000612a27602583612eaf565b9150612a32826132a2565b604082019050919050565b6000612a4a601283612eaf565b9150612a55826132f1565b602082019050919050565b6000612a6d600083612ea4565b9150612a788261331a565b600082019050919050565b6000612a90601d83612eaf565b9150612a9b8261331d565b602082019050919050565b6000612ab3601183612eaf565b9150612abe82613346565b602082019050919050565b6000612ad6602983612eaf565b9150612ae18261336f565b604082019050919050565b612af58161301d565b82525050565b6000612b0682612a60565b9150819050919050565b6000602082019050612b256000830184612905565b92915050565b600061010082019050612b41600083018b612905565b612b4e602083018a612905565b8181036040830152612b608189612932565b90508181036060830152612b748188612932565b9050612b836080830187612aec565b612b9060a0830186612aec565b612b9d60c0830185612aec565b612baa60e0830184612914565b9998505050505050505050565b6000604082019050612bcc6000830185612905565b612bd96020830184612aec565b9392505050565b600061010082019050612bf6600083018b612905565b612c03602083018a612aec565b8181036040830152612c158189612932565b9050612c246060830188612aec565b8181036080830152612c368187612932565b905081810360a0830152612c4a8186612932565b905081810360c0830152612c5e8185612932565b9050612c6d60e0830184612aec565b9998505050505050505050565b6000602082019050612c8f6000830184612923565b92915050565b60006080820190508181036000830152612caf8187612932565b90508181036020830152612cc38186612932565b9050612cd26040830185612aec565b612cdf6060830184612aec565b95945050505050565b60006020820190508181036000830152612d018161296b565b9050919050565b60006020820190508181036000830152612d218161298e565b9050919050565b60006020820190508181036000830152612d41816129b1565b9050919050565b60006020820190508181036000830152612d61816129d4565b9050919050565b60006020820190508181036000830152612d81816129f7565b9050919050565b60006020820190508181036000830152612da181612a1a565b9050919050565b60006020820190508181036000830152612dc181612a3d565b9050919050565b60006020820190508181036000830152612de181612a83565b9050919050565b60006020820190508181036000830152612e0181612aa6565b9050919050565b60006020820190508181036000830152612e2181612ac9565b9050919050565b6000602082019050612e3d6000830184612aec565b92915050565b6000612e4d612e5e565b9050612e5982826130b1565b919050565b6000604051905090565b600067ffffffffffffffff821115612e8357612e8261316f565b5b612e8c8261319e565b9050602081019050919050565b600081519050919050565b600081905092915050565b600082825260208201905092915050565b6000612ecb8261301d565b9150612ed68361301d565b9250827fffffffffffffffffffffffffffffffffffffffffffffffffffffffffffffffff03821115612f0b57612f0a6130e2565b5b828201905092915050565b6000612f218261301d565b9150612f2c8361301d565b925082612f3c57612f3b613111565b5b828204905092915050565b6000612f528261301d565b9150612f5d8361301d565b9250817fffffffffffffffffffffffffffffffffffffffffffffffffffffffffffffffff0483118215151615612f9657612f956130e2565b5b828202905092915050565b6000612fac8261301d565b9150612fb78361301d565b925082821015612fca57612fc96130e2565b5b828203905092915050565b6000612fe082612ffd565b9050919050565b60008115159050919050565b6000819050919050565b600073ffffffffffffffffffffffffffffffffffffffff82169050919050565b6000819050919050565b600069ffffffffffffffffffff82169050919050565b82818337600083830152505050565b60005b8381101561306a57808201518184015260208101905061304f565b83811115613079576000848401525b50505050565b6000600282049050600182168061309757607f821691505b602082108114156130ab576130aa613140565b5b50919050565b6130ba8261319e565b810181811067ffffffffffffffff821117156130d9576130d861316f565b5b80604052505050565b7f4e487b7100000000000000000000000000000000000000000000000000000000600052601160045260246000fd5b7f4e487b7100000000000000000000000000000000000000000000000000000000600052601260045260246000fd5b7f4e487b7100000000000000000000000000000000000000000000000000000000600052602260045260246000fd5b7f4e487b7100000000000000000000000000000000000000000000000000000000600052604160045260246000fd5b6000601f19601f8301169050919050565b7f73747265616d20646f6573206e6f742065786973740000000000000000000000600082015250565b7f53746172742074696d65206265666f726520626c6f636b2074696d657374616d60008201527f7000000000000000000000000000000000000000000000000000000000000000602082015250565b7f417661696c61626c652062616c616e6365206973203000000000000000000000600082015250565b7f53747265616d20746f20746865207a65726f2061646472657373000000000000600082015250565b7f53747265616d20746f207468652063616c6c6572000000000000000000000000600082015250565b7f4465706f736974206973206c6573732074686174206f7220657175616c20746f60008201527f207a65726f000000000000000000000000000000000000000000000000000000602082015250565b7f5472616e73616374696f6e206661696c65640000000000000000000000000000600082015250565b50565b7f53747265616d20746f2074686520636f6e747261637420697473656c66000000600082015250565b7f4e6f7420616e2076616c69642075736572000000000000000000000000000000600082015250565b7f63616c6c6572206973206e6f742074686520726563697069656e74206f66207460008201527f68652073747265616d0000000000000000000000000000000000000000000000602082015250565b6133c781612fd5565b81146133d257600080fd5b50565b6133de81612fe7565b81146133e957600080fd5b50565b6133f581612ff3565b811461340057600080fd5b50565b61340c8161301d565b811461341757600080fd5b50565b61342381613027565b811461342e57600080fd5b5056fea2646970667358221220378237e9ff08e9919b773119864c3bd3dc9f16e659ce982f87b4dd686e97809964736f6c63430008030033",
  "linkReferences": {},
  "deployedLinkReferences": {}
}